:10000000F5C000001AC1000018C1000016C10000B0
:1000100014C1000012C1000010C100000EC1000098
:100020000CC100000AC1000008C1000006C10000A8
:1000300004C1000002C1000000C10000FEC00000B9
:100040000C948309FAC000000EC500003EC50000F4
:10005000F4C00000F2C00000F0C00000EEC00000DC
:10006000ECC00000EAC00000436F6E6E6563746907
:100070006E6720746F20746865206D6573682E2E1E
:100080002E001112131415160A0B0C0D0E0F000181
:100090000203040500000008000201000003040739
:1000A0000000000000000000010204081020408051
:1000B00001020408102001020408102004040404B2
:1000C0000404040402020202020203030303030302
:1000D0000000000023002600290000000000250089
:1000E00028002B0000000000240027002A00004008
:1000F0007A10F35A00A0724E18090010A5D4E80037
:1001000000E87648170000E40B54020000CA9A3B4E
:10011000000000E1F50500008096980000004042D4
:100120000F000000A0860100000010270000000062
:10013000E803000000006400000000000A00000066
:1001400000000100000000002C76D888DC674F0812
:1001500023DFC1DFAE59E1B1B796E5E3E453C63A18
:10016000E651997696E8E6C28426EB898C9B62ED8F
:10017000407C6FFCEFBC9C9F40F2BAA56FA5F49049
:10018000055A2AF75C936B6CF9676DC11BFCE0E4C0
:100190000D47FEF520E6B500D0ED902E0300943516
:1001A00077050080841E080000204E0A000000C869
:1001B0000C333333330F986E12831141EF8D2114BA
:1001C000893BE65516CFFEE6DB18D1844B381BF78A
:1001D0007C1D901DA4BBE424203284725E22810029
:1001E000C9F124ECA1E53D275703930511241FBE57
:1001F000CFEFD8E0DEBFCDBF12E0A0E0B1E0EEE18E
:10020000FAE402C005900D92A632B107D9F725E0B5
:10021000A6E2B2E001C01D92A732B207E1F711E0F9
:10022000CCEED1E004C02297FE010E94BC1FC83E64
:10023000D107C9F7BCD40C940D25E2CE88E292E038
:100240000C94D21CAF92BF92CF92DF92EF92FF92AA
:100250000F931F93CF93DF93CDB7DEB78C01ADB66D
:10026000BEB68AE694E00E94F10BF801E480F580C6
:10027000FFEFEF1AFF0A8DB79EB78E199F090FB6D1
:10028000F8949EBF0FBE8DBFEDB7FEB731966F01DC
:1002900020E030E0A701BF01C8010E944E096AE0DA
:1002A00071E08CE794E0FCD4B6018CE794E023D5B0
:1002B00000E0970146E5B60184EE92E00E949616B2
:1002C000811119C084EE92E00E941F1881110EC0A6
:1002D00064E171E08CE794E00ED540E65AEE60E010
:1002E00070E084EE92E00E94801905C065E271E042
:1002F0008CE794E000D58AE694E00E94E20B0FB60A
:10030000F894BEBE0FBEADBEDF91CF911F910F918D
:10031000FF90EF90DF90CF90BF90AF9008959093B3
:100320000701809306016091260288E292E00E9414
:10033000AA1C4091060150910701662757FD609560
:10034000762F24E732E088E292E00E942D1D992763
:1003500087FD9095909327028093260208958F92AF
:100360009F92AF92BF92CF92DF92EF92FF920F9344
:100370001F93CF93DF93CDB7DEB764970FB6F89492
:10038000DEBF0FBECDBFADB6BEB68AE694E00E941A
:10039000F10B04E610E088EF92E00E9458108823E9
:1003A00009F473C0BE016F5F7F4F88EF92E00E9437
:1003B00066108AE694E00E94A00C9F81993409F4AB
:1003C0004FC0953509F05CC08DB69EB6282F3327F7
:1003D00027FD30958DB79EB7821B930B0FB6F8940F
:1003E0009EBF0FBE8DBF0DB71EB70F5F1F4FA80179
:1003F000BE016F5F7F4F88EF92E00E947D10B801D1
:10040000CE010F9684D66AE571E0CE0109967FD6BB
:10041000BE01615F7F4FCE01099617D7BC018CE703
:1004200094E059D4CE01099607D6CE010F9660D735
:100430006B017C014AE050E08CE794E00BD5C601EB
:100440006EDFB6016B597E4F8CE794E054D4CE0139
:100450000F96F2D50FB6F8949EBE0FBE8DBE10C09B
:1004600020E030E040E050E0BE016F5F7F4F88EF5A
:1004700092E00E947D1068E371E08CE794E03BD449
:10048000FF24F39400E010E001C0F12C01501109A9
:1004900062E070E080E090E0AFD7F11009C0101684
:1004A00011060CF478CF62E871E08CE794E023D475
:1004B0008AE694E00E94E20B0FB6F894BEBE0FBE2F
:1004C000ADBE64960FB6F894DEBF0FBECDBFDF9110
:1004D000CF911F910F91FF90EF90DF90CF90BF9041
:1004E000AF909F908F9008950F931F93CF93DF93BA
:1004F000CDB7DEB7AC970FB6F894DEBF0FBECDBF59
:1005000040E060E082ED92E00E94011C8E01055FF8
:100510001F4F22E043E00E94CF1F6FEF7FEF84EE7A
:1005200092E00E9406174AE0BC01CE01459637D6FC
:10053000BE016B5E7F4FCE01019613D66BE971E071
:10054000CE01019693D6BC01CE0187960AD6CE0184
:10055000019672D5CE0145966FD5BE01695D7F4F7C
:10056000CE010196FED5B801CE0101967FD6BC0121
:10057000CE018796E1D5CE0101965ED5BE01695DBB
:100580007F4FCE010196EDD5CE0101965BDECE0107
:10059000019652D560E082ED92E00E94581C0A500C
:1005A000110922E043E00E94CF1F6FEF7FEF84EE3E
:1005B00092E00E9406174AE0BC01CE014B96EFD5AF
:1005C000BE01655E7F4FCE014596CBD569EA71E0ED
:1005D000CE0145964BD6BC01CE018196C2D5CE0147
:1005E00045962AD5CE014B9627D5BE016F5D7F4F2C
:1005F000CE014596B6D5B801CE01459637D6BC0199
:10060000CE01819699D5CE01459616D5BE016F5D76
:100610007F4FCE014596A5D5CE01459613DECE017E
:1006200045960AD58AE694E00E94F10B84EE92E0AA
:100630000E94911764EB71E08CE794E05CD300E0DA
:1006400021E030E049E460E070E084EE92E00E9456
:10065000961681111AC084EE92E00E941F18811133
:100660000EC064E171E08CE794E045D340E65AEEB9
:1006700060E070E084EE92E00E94801907C065E2BD
:1006800071E08CE794E037D301C069DECE0181963A
:10069000D3D4CE018796D0D4AC960FB6F894DEBFF3
:1006A0000FBECDBFDF91CF911F910F91089548E00C
:1006B00067E08AE694E00E94A40B6AE674E088EFA3
:1006C00092E00E94E40E48EF52E06AE674E084EEA5
:1006D00092E00E94C81526E046E165E082ED92E0D6
:1006E0000E94981A88E292E00C94971C0F931F9333
:1006F00026E040E052EC61E070E08CE794E051D1FC
:1007000065E084EE92E00E94631A6FEF7FEF84EE63
:1007100092E00E940617892B31F58CE794E061D0B6
:10072000892B99F36CEC71E08CE794E0B9D241E04D
:1007300060E070E08CE794E011D484EE92E00E94D7
:10074000631A66EE71E08CE794E0AAD26FEF7FEF58
:1007500084EE92E00E9406174AE050E0BC018CE76C
:1007600094E078D3D2CF82ED92E00E94B91A409102
:10077000060150910701662757FD6095762F24E703
:1007800032E088E292E00E942D1D992787FD909526
:10079000909327028093260268E670E08CE794E04D
:1007A0008AD200E61AEE20E030E040E050E061E658
:1007B00084EE92E00E94011A62E070E08AE694E022
:1007C0000E943E0E63E08AE694E00E94270E63EFEB
:1007D00071E08CE794E08FD28AE694E01F910F914C
:1007E000F1C7FC01818D228D90E0805C9F4F821BC0
:1007F00091098F7399270895FC01918D828D981727
:1008000031F0828DE80FF11D858D90E008958FEF16
:100810009FEF0895FC01918D828D981761F0828D74
:10082000DF01A80FB11D5D968C91928D9F5F9F7324
:10083000928F90E008958FEF9FEF08958AE895E0FA
:10084000892B41F080E090E0892B21F063D1811168
:100850000C9400000895FC01848DDF01A80FB11DE8
:10086000A35ABF4F2C91848D90E001968F739927E6
:10087000848FA689B7892C93A089B1898C918064D3
:100880008C93938D848D981306C00288F389E02D94
:1008900080818F7D80830895CF93DF93EC01888DD5
:1008A0008823C1F0EA89FB89808185FD05C0A8897C
:1008B000B9898C9186FD0EC00FB607FCF5CF8081FB
:1008C00085FFF2CFA889B9898C9185FFEDCFCE0144
:1008D000C2DFE8CFDF91CF910895CF92DF92FF92F0
:1008E0000F931F93CF93DF931F92CDB7DEB76C01A9
:1008F00081E0D60158968C9358975B969C915B97B4
:100900005C968C915C97981307C05096ED91FC9182
:100910005197808185FD2DC0F601038D10E00F5F9A
:100920001F4F0F731127F02EF601848DF81210C09F
:100930000FB607FCF9CFD6015096ED91FC91519777
:10094000808185FFF1CFC601698385DF6981ECCFA6
:10095000838DE80FF11DE35AFF4F6083D6015B964C
:100960000C935B975296ED91FC9153978081806236
:100970000CC0D6015696ED91FC9157976083509626
:10098000ED91FC91519780818064808381E090E0BB
:100990000F90DF91CF911F910F91FF90DF90CF903B
:1009A0000895BF92CF92DF92EF92FF92CF93DF93A1
:1009B000EC016A017B01B22EE889F98982E080832B
:1009C000411581EE580761057105A1F060E079E0FD
:1009D0008DE390E0A70196010E948E1F21503109FE
:1009E000410951095695479537952795211580E17D
:1009F000380798F0E889F989108260E874E88EE198
:100A000090E0A70196010E948E1F215031094109F3
:100A100051095695479537952795EC85FD85308387
:100A2000EE85FF852083188EEC89FD89B082EA89E6
:100A3000FB89808180618083EA89FB89808188606D
:100A40008083EA89FB89808180688083EA89FB89C9
:100A500080818F7D8083DF91CF91FF90EF90DF9039
:100A6000CF90BF9008951F920F920FB60F9211244E
:100A70002F938F939F93EF93FF93E0918C04F091CA
:100A80008D048081E0919204F091930482FD12C064
:100A90009081809195048F5F8F73209196048217C7
:100AA00051F0E0919504F0E0E458FB4F958F80936E
:100AB000950401C08081FF91EF919F918F912F91BB
:100AC0000F900FBE0F901F9018951F920F920FB6A8
:100AD0000F9211242F933F934F935F936F937F93C4
:100AE0008F939F93AF93BF93EF93FF938CE794E023
:100AF000B2DEFF91EF91BF91AF919F918F917F9166
:100B00006F915F914F913F912F910F900FBE0F907A
:100B10001F9018958CE794E064DE21E0892B09F49E
:100B200020E0822F089510927F0410927E0488EEB8
:100B300093E0A0E0B0E08093800490938104A093C0
:100B40008204B093830481E092E090937D048093CB
:100B50007C0485EC90E0909389048093880484EC75
:100B600090E090938B0480938A0480EC90E09093C3
:100B70008D0480938C0481EC90E090938F0480939B
:100B80008E0482EC90E0909391048093900486EC24
:100B900090E09093930480939204109295041092A5
:100BA000960410929704109298040895089554D4CE
:100BB000FDDF9CDDCEE1D4E041DB2097E9F33EDEB2
:100BC000FBCFCF92DF92EF92FF920F931F93CF93C1
:100BD000DF937C016A01EB0100E010E00C151D05BC
:100BE00071F06991D701ED91FC910190F081E02DB8
:100BF000C7010995892B19F00F5F1F4FEFCFC8016F
:100C0000DF91CF911F910F91FF90EF90DF90CF90E8
:100C100008956115710581F0DB010D900020E9F761
:100C2000AD0141505109461B570BDC01ED91FC9180
:100C30000280F381E02D099480E090E00895EF9226
:100C4000FF920F931F93CF93DF938C017B01C0E042
:100C5000D0E0F701EC0FFD1F6491662359F0F80115
:100C6000A081B181ED91FC91C8010995892B11F00A
:100C70002196EFCFCE01DF91CF911F910F91FF9081
:100C8000EF900895DC01ED91FC91DB0114964D91FC
:100C90005C9115976D917C910280F381E02D099410
:100CA000B8CFDC01ED91FC910190F081E02D099429
:100CB0006DE072E0AECF0F931F93CF93DF93EC0103
:100CC000BEDF8C01CE01F4DF800F911FDF91CF9149
:100CD0001F910F9108950F931F93CF93DF93EC0112
:100CE000D1DF8C01CE01E4DF800F911FDF91CF9126
:100CF0001F910F9108950F931F93CF93DF93EC01F2
:100D000088DF8C01CE01D4DF800F911FDF91CF915E
:100D10001F910F9108958F929F92AF92BF92CF92A1
:100D2000DF92EF92FF920F931F93CF93DF93CDB794
:100D3000DEB7A1970FB6F894DEBF0FBECDBF7C0122
:100D4000C42EE52FCB01D22E19A221E02D1510F0D3
:100D50002AE0D22E8E010F5D1F4F8D2C912CA12CDD
:100D6000B12C6C2D7E2FA50194010E948E1F8C2D1D
:100D7000D29E80191124015011098A3014F4805D2B
:100D800001C0895CF80180832115310541055105B9
:100D900021F0C22EE32FCA01E4CFB801C70139DF29
:100DA000A1960FB6F894DEBF0FBECDBFDF91CF91F5
:100DB0001F910F91FF90EF90DF90CF90BF90AF9079
:100DC0009F908F900895CF92DF92EF92FF920F93B2
:100DD0001F93CF93DF93EC016A017B01211531054D
:100DE00079F4E881F9810190F081E02D642FDF91A1
:100DF000CF911F910F91FF90EF90DF90CF900994CA
:100E00002A303105D9F477FF18C06DE24ADF8C0132
:100E100044275527BA014C195D096E097F092AE05C
:100E2000CE0179DF800F911FDF91CF911F910F913C
:100E3000FF90EF90DF90CF9008952AE0B701A601D0
:100E4000CE01DF91CF911F910F91FF90EF90DF9036
:100E5000CF9061CF0F931F93CF93DF93EC019A0153
:100E6000AB01662757FD6095762FADDF8C01CE0173
:100E70001FDF800F911FDF91CF911F910F91089578
:100E80000F931F93CF93DF93EC0187D26887798705
:100E90008A879B87E881F9810084F185E02DCE0166
:100EA000099597FF14C079D2088519852A853B8555
:100EB000601B710B820B930B0C811D812E813F8176
:100EC000601771078207930728F38FEF9FEFDF9179
:100ED000CF911F910F910895FF920F931F93CF937E
:100EE000DF93EC018B01F42ECE01CADF9C0197FD4C
:100EF00028C08D32910519F1C0970A9710F1FF2093
:100F000019F02E323105F9F001301105F9F00230F7
:100F1000110569F42D30310551F034F429503109AF
:100F20002230310520F012C02032310579F4E881F9
:100F3000F9810680F781E02DCE010995D5CF8DE2AC
:100F400003C0C90105C08EE290E002C08FEF9FEFA1
:100F5000DF91CF911F910F91FF900895CF92DF9273
:100F6000FF920F931F93CF93DF9300D000D0CDB7A4
:100F7000DEB76C01042F40E0AFDFFC0197FD4AC0F3
:100F800020E030E0A901F12C112707FD1095E017B2
:100F9000F107E9F0ED32F105C1F0CF01C0970A97F2
:100FA000B0F4AAE0B0E00E94B01F9B01AC01CF01F9
:100FB000AA2797FDA095BA2F280F391F4A1F5B1F3C
:100FC000205331094109510902C0FF24F394D6018D
:100FD000ED91FC910680F781E02DC60129833A83CB
:100FE0004B835C830995C6014BDFFC01C0972981C7
:100FF0003A814B815C810A9750F2E017F10739F290
:10100000FF2061F066277727CB01621B730B840BEF
:10101000950B06C060E070E0CB0102C0CA01B901C7
:101020000F900F900F900F90DF91CF911F910F9124
:10103000FF90DF90CF900895FC01808191810C9406
:101040008720CF93DF93EC0188819981009711F07D
:101050000E948720198218821D821C821B821A829C
:10106000DF91CF9108950F931F93CF93DF93EC01FE
:101070008B016F5F7F4F888199810E9416210097B5
:1010800031F0998388831B830A8381E001C080E06B
:10109000DF91CF911F910F910895CF93DF93EC01D2
:1010A00088819981892B29F08A819B8186179707EE
:1010B00058F4CE01D8DF882341F08C819D81892BA3
:1010C00019F4E881F981108281E0DF91CF910895D0
:1010D000EF92FF920F931F93CF93DF93EC017B016D
:1010E0008A01BA01DADF811103C0CE01AADF07C08D
:1010F0001D830C83B701888199810E941922CE013A
:10110000DF91CF911F910F91FF90EF900895FC0117
:101110001182108213821282158214826115710568
:1011200051F0FB0101900020E9F7AF014150510956
:10113000461B570BCDCF0895CF93DF93EC01FB01F6
:101140008617970751F0608171816115710521F053
:1011500044815581BDDF01C074DFCE01DF91CF91A5
:101160000895FC011182108213821282158214826A
:10117000E3CFCF93DF93EC016115710559F0FB01CB
:1011800001900020E9F7AF0141505109461B570B70
:101190009FDF01C056DFCE01DF91CF9108950F93FD
:1011A0001F93CF93DF93CDB7DEB762970FB6F89456
:1011B000DEBF0FBECDBF8C01CB01F80111821082C2
:1011C000138212821582148250E0BE016F5F7F4F3E
:1011D0000E942F22BE016F5F7F4FC801CADF629657
:1011E0000FB6F894DEBF0FBECDBFDF91CF911F9138
:1011F0000F910895EF92FF920F931F93CF93DF9378
:10120000EC017B010C811D816115710511F480E0F9
:1012100015C04115510589F0040F151FB8013DDFB8
:101220008823A9F3288139818C819D81B701820FA0
:10123000931F0E9419221D830C8381E0DF91CF91BF
:101240001F910F91FF90EF900895CF93DF93EC01E2
:10125000FB014481558160817181CCDF811102C025
:10126000CE01EFDECE01DF91CF910895CF93DF93D2
:10127000EC016115710561F0FB0101900020E9F7B7
:10128000AF0141505109461B570BB4DF811102C019
:10129000CE01D7DECE01DF91CF9108950F931F933A
:1012A000CF93DF93EB0141155105E9F02097D9F079
:1012B000FC016481758126173707A0F4621B730B4C
:1012C0008A01015011096017710708F48B01FC01B4
:1012D00060817181620F731FA801CE010E942022DC
:1012E000C00FD11F1882DF91CF911F910F910895E8
:1012F000FC0180819181009711F00C94D92160E06C
:1013000070E0CB0108951F920F920FB60F92112437
:101310002F933F938F939F93AF93BF9380911A0521
:1013200090911B05A0911C05B0911D0530911905E8
:1013300023E0230F2D3720F40196A11DB11D05C018
:1013400026E8230F0296A11DB11D20931905809355
:101350001A0590931B05A0931C05B0931D05809161
:101360001E0590911F05A0912005B09121050196C1
:10137000A11DB11D80931E0590931F05A09320050C
:10138000B0932105BF91AF919F918F913F912F9184
:101390000F900FBE0F901F9018952FB7F894609183
:1013A0001A0570911B0580911C0590911D052FBF9A
:1013B00008953FB7F89480911E0590911F05A09164
:1013C0002005B091210526B5A89B05C02F3F19F037
:1013D0000196A11DB11D3FBF6627782F892F9A2F37
:1013E000620F711D811D911D42E0660F771F881FDE
:1013F000991F4A95D1F70895CF92DF92EF92FF920D
:10140000CF93DF936B017C01D4DFEB01C114D104D6
:10141000E104F10479F05BD0CCDF6C1B7D0B683EFE
:101420007340A0F381E0C81AD108E108F108C8515F
:10143000DC4FECCFDF91CF91FF90EF90DF90CF901A
:1014400008958230910538F0880F991F880F991FF1
:1014500005970197F1F70895789484B5826084BD6B
:1014600084B5816084BD85B5826085BD85B58160A8
:1014700085BDEEE6F0E0808181608083E1E8F0E008
:101480001082808182608083808181608083E0E837
:10149000F0E0808181608083E1EBF0E08081846016
:1014A0008083E0EBF0E0808181608083EAE7F0E018
:1014B000808184608083808182608083808181607C
:1014C00080838081806880831092C1000895089590
:1014D0008EBD00000DB407FEFDCF8EB508952CB56E
:1014E0002F7D2CBD2CB5237F2CBD2CB52C7F2CBD86
:1014F0002DB521602DBDFC0181810E94971D85E0E5
:1015000090E09FCFFC018081918189130C94971DFD
:10151000089560E0E4CF61E0E2CFEF92FF921F9385
:10152000CF93DF931F92CDB7DEB77C016983F1DFE4
:101530006981862F8F71CCDF8FEFCADF182FC7012B
:10154000EADF812F0F90DF91CF911F91FF90EF90F5
:101550000895CF92DF92EF92FF920F931F93CF9354
:10156000DF9300D01F92CDB7DEB78C01F22E4A83F5
:101570005B836983CEDF6981862F8F718062A8DFEC
:10158000E82E4A81C42E5B81D52EF40EFC1429F07E
:10159000F60181916F019CDFF9CFC801BCDF8E2D70
:1015A0000F900F900F90DF91CF911F910F91FF90AF
:1015B000EF90DF90CF900895EF92FF921F93CF931B
:1015C000DF9300D0CDB7DEB77C014A836983A1DF0A
:1015D0006981862F8F7180627BDF182F4A81842F6B
:1015E00077DFC70198DF812F0F900F90DF91CF91A8
:1015F0001F91FF90EF900895AF92BF92DF92EF920C
:10160000FF920F931F93CF93DF9300D01F92CDB71C
:10161000DEB78C01FC01E580F42EE41608F4FE2C04
:10162000F8018681811102C0EF1801C0E12CC801C8
:1016300029836A837B836DDF2981822F49DFD82E3E
:101640006A81A62E7B81B72EF60EFA1429F0F501D9
:1016500081915F013DDFF9CFEE2021F080E038DF9E
:10166000EA94FACFC80157DF8D2D0F900F900F909D
:10167000DF91CF911F910F91FF90EF90DF90BF907E
:10168000AF900895AF92BF92DF92EF92FF920F93C7
:101690001F93CF93DF9300D0CDB7DEB78C01FC0151
:1016A000E580F42EE41608F4FE2CF8018681811101
:1016B00002C0EF1801C0E12CC80169837A8329DFD9
:1016C00081E606DFD82E6981A62E7A81B72EF60E26
:1016D000FA1431F08FEFFCDEF50181935F01F8CF52
:1016E000EE2021F08FEFF4DEEA94FACFC80113DF89
:1016F0008D2D0F900F90DF91CF911F910F91FF9043
:10170000EF90DF90BF90AF900895EF92FF921F93FC
:10171000CF93DF931F92CDB7DEB77C016983F9DEEB
:101720006981862FD5DE182FC701F5DE812F0F9036
:10173000DF91CF911F91FF90EF90089562EEE5CF7A
:1017400061EEE3CF6FEFE1CFFC0160834183148250
:1017500080E28583168285E0848717820895462F6C
:101760006E3708F04DE765E027CFCF93DF93EC01AC
:1017700060E0C8DE8D859E8564DE6DE1CE01CDDE44
:1017800081FF05C08D859E855CDECE01D9DF60E0DE
:10179000CE01C3DE482F4E7F60E0CE010DDF62E058
:1017A000CE01BBDEEEE8F0E0E49121E030E001C0E4
:1017B000220FEA95EAF7822B482F62E0CE01DF91F3
:1017C000CF91FACECF93DF93EC0160E09BDE60E037
:1017D000CE01A3DE482F4D7F60E0CE01DF91CF9197
:1017E000EBCECF93DF93EC0160E097DE81FD0FC07D
:1017F00060E0CE0192DE482F426060E0CE01DCDE88
:1018000065E070E080E090E0DF91CF91F5CDDF9171
:10181000CF9108950F93CF93DF93EC01222311F022
:1018200020EB01C020EACE01E7DE002331F061E0C9
:10183000CE01DF91CF910F9165CEDF91CF910F91C6
:101840000895CF92DF92EF92FF920F93CF93DF93A1
:1018500000D0CDB7DEB76C017B01C6012A83498376
:1018600071DF2A81498180FF0EC0C6012A83498326
:1018700069DF2A81498184FFF0CF40E167E0C6013A
:101880009BDE80E005C001E0B701C601C3DF81E057
:101890000F900F90DF91CF910F91FF90EF90DF901D
:1018A000CF90089567E139DE8695817008958F9213
:1018B0009F92AF92BF92CF92DF92EF92FF92CF931F
:1018C000DF93EC014A015B01222321F04EDF61E04E
:1018D000CE0118DE62DD6B017C0167E1CE011DDE09
:1018E00084FD1FC0CE012EDF84FFF7CF40E167E00B
:1018F000CE0162DE60E0CE0105DE61E0CE0102DEF7
:101900004CDD6C197D098E099F09681579058A05DA
:101910009B0518F360E0CE01F5DDCE0111DF80E01C
:1019200004C060E0CE01EEDD81E0DF91CF91FF9059
:10193000EF90DF90CF90BF90AF909F908F900895E1
:101940001F93CF93DF93EC01E4DD80E6C1DD8FEFE1
:10195000BFDD182FCE01DFDD113248F0CE01EEDE03
:1019600062E070E080E090E047DD80E001C0812F20
:10197000DF91CF911F9108950F931F93CF93DF9322
:101980008C01EB0167E1C9DD80FD0AC0209751F0B1
:10199000C801D8DE90E0959587958770888302C04E
:1019A00080E001C081E0DF91CF911F910F910895F8
:1019B00060E070E0E1CFCF93DF93EC0163DE40E7BE
:1019C00067E0CE01DF91CF91F7CDEF92FF920F93B9
:1019D0001F93CF93DF93CDB7DEB728970FB6F89458
:1019E000DEBF0FBECDBF7C0109831A832B833C83EE
:1019F0004D835E836F837887FC012485AE014F5F42
:101A00005F4F6AE0A6DDF7012485AE014F5F5F4FAF
:101A100060E1C7019EDDF701458161E1C701CCDDD1
:101A200028960FB6F894DEBF0FBECDBFDF91CF91E1
:101A30001F910F91FF90EF900895BF92CF92DF9288
:101A4000EF92FF920F931F93CF93DF93CDB7DEB743
:101A500028970FB6F894DEBF0FBECDBF6C01B62E2F
:101A6000E982FA820B831C832D833E834F83588740
:101A700061110AC0FC01448550E0BE016F5F7F4FD9
:101A800007960E94FF2107C0F6E0F61708F432C05F
:101A900081E0681308C0EB2DF0E0E857FF4F649138
:101AA000F601248506C0E62FF0E0E857FF4F649169
:101AB00021E0AE014F5F5F4FC6014BDD0B2D10E003
:101AC000F801EE57FF4F6491F6014581C60174DDC0
:101AD00062E0C60122DDF801E257FF4F049121E0E8
:101AE00030E001C0220F0A95EAF7822B482F62E00E
:101AF000C60162DD28960FB6F894DEBF0FBECDBFDB
:101B0000DF91CF911F910F91FF90EF90DF90CF90D9
:101B1000BF9008951F93CF93DF93EC01162F62E0DF
:101B2000FCDCE12FF0E0E257FF4FE49141E050E0B0
:101B300001C0440FEA95EAF74095482362E0CE01E0
:101B4000DF91CF911F9138CDCF93DF93EC0149DE28
:101B500060E0CE01E2DC482F416060E0CE012CDD88
:101B600040E767E0CE0128DD61E0CE01CBDC8F816C
:101B7000882341F02C85AE01495F5F4F6AE0CE01BA
:101B8000E8DC03C060E0CE01C5DF6DE1CE01C5DC5D
:101B900081FF04C0CE01DF91CF91D2CDDF91CF91F3
:101BA0000895CF93DF93EC01B4DC80E591DC83E70B
:101BB0008FDCCE01DF91CF91AECCCF93DF93EC01E0
:101BC0006DE1ABDC482F44606DE1CE01F5DC6CE1EA
:101BD000CE01A3DC482F4F636CE1CE01EDDC81E048
:101BE0008E83DF91CF910895EF92FF921F93CF9351
:101BF000DF931F92CDB7DEB77C01162F673000F55B
:101C000061E049838ADC4981442349F041E050E0A6
:101C1000012E01C0440F0A94EAF7482B08C041E0A6
:101C200050E001C0440F1A95EAF74095482361E05F
:101C3000C7010F90DF91CF911F91FF90EF90BCCC27
:101C40000F90DF91CF911F91FF90EF9008951F9318
:101C5000CF93DF93EC01162F66E05FDC887F1430B2
:101C600020F4612F660F6F5F01C067E0462F482B9D
:101C700066E0CE01DF91CF911F919ECCEF92FF9253
:101C80000F931F93CF93DF931F92CDB7DEB77C01E5
:101C90008B0166E042DC582F577D0230110531F48C
:101CA00050620BE910E020E030E00DC0013011057A
:101CB00029F005E510E020E030E005C0586001E4BF
:101CC00010E020E030E0F701058716872787308B8A
:101CD000452F66E0C70159836FDC66E0C7011DDC54
:101CE00091E05981851390E0892F0F90DF91CF917A
:101CF0001F910F91FF90EF9008951F93CF93DF9363
:101D0000EC0188819981891719F061E00E945E1DBC
:101D100089819881981719F061E00E945E1D0E94E8
:101D2000661A60E0CE01EEDB61E0CE01D8DB65E053
:101D300070E080E090E060DB4CE060E0CE013CDCF5
:101D40004FE564E0CE0138DC62E070E0CE0196DF62
:101D5000882311F081E08C8366E0CE01DEDB182F52
:101D600060E070E0CE018ADFCE011BDF40E06DE174
:101D7000CE0122DC40E06CE1CE011EDC40E767E0F2
:101D8000CE011ADC6CE4CE01EADCCE01D7DCCE0158
:101D9000D7DCCE0126DD60E0CE01BFDB482F4E7FD1
:101DA00060E0CE0109DC115081E01E3F08F080E0C8
:101DB000DF91CF911F91089520E1629FB00111241E
:101DC0004F70462B64E0F8CBFC0170AB67A7E15382
:101DD000FF4F9C012B5C3F4F318320833C9628555D
:101DE0003F4F318320832C503109FC0130A727A3BA
:101DF00008958F929F92AF92BF92CF92DF92EF920F
:101E0000FF920F931F93CF93DF93EC018B018CA86C
:101E100028EF820EFB0146818CE6840F833020F090
:101E2000483C09F0C8C003C0443909F4DFC08BE660
:101E3000840F823018F0483C09F088C07E0159EDCB
:101E4000E50EF11CF70180819181912C9401280FFE
:101E5000391F2139310520F0C852DF4F1882A9C03F
:101E60006E01F8EDCF0ED11CF6012081222309F47A
:101E7000A0C0463921F0F801378132139AC0FE0123
:101E8000EB52FF4F40815181F80124813581421787
:101E9000530709F08EC05E01FBEDAF0EB11CF501DA
:101EA00020813181A401BE01615F7F4F820F931FAA
:101EB0000E94FF21F70180819181880D991D9183F6
:101EC0008083F8012681F601263921F08081815036
:101ED00080836DC01082F8012781FE01E952FF4F17
:101EE0002083233809F480C08E0101531F4FF8016D
:101EF000A081B1819E012A1B3B0B2B533F4F28171A
:101F00003907E8F032968AE001900D928A95E1F760
:101F1000F80180819181F50160817181F701408133
:101F200051810A960E94FF21F70120813181265FAD
:101F30003F4FF80180819181820F931F36C08FA59A
:101F400098A913DC8AA581608AA733C08E0101534A
:101F50001F4FF801A081B181E82CF12CCE01C5966C
:101F60009D01281B390BC9018E0D9F1D8B399105D1
:101F700004F5E85CF10988E001900D928A95E1F79B
:101F8000F80180819181FC01F186E086BE01615FEC
:101F90007F4FA7010A960E94FF21FAE0EF0EF11C85
:101FA000F801808191818E0D9F1D9183808381E056
:101FB00072C080E070C0433849F6DE01AF52BF4FB7
:101FC000FE01379688E001900D928A95E1F7FE01B7
:101FD000E552FF4FCE010F9691838083C752DF4FAA
:101FE000E82CF12CF982E88282E055C0F8012781C3
:101FF0002B3908F031CFFE01EB52FF4F4081518168
:10200000F80184819581BE016F527F4F6B014817A3
:10201000590749F4FB0140815181F8018081918188
:102020004817590721F2F8E12F9F90011124FE0172
:10203000E153FF4F80819181AE01481B590BCA01CA
:102040008B539F4F8217930734F48AA581608AA728
:102050008FA598A98ADBFE01379688E0D60101900A
:102060000D928A95E1F7E82CF12CFE01E552FF4F25
:10207000BE01615F7F4FA701808191810E94FF2196
:10208000FE01E752FF4FF182E082C852DF4F8881A4
:10209000815088838CCFDF91CF911F910F91FF905A
:1020A000EF90DF90CF90BF90AF909F908F9008956A
:1020B000FC01E153FF4F9C012B5C3F4F81E04081CD
:1020C00051812417350708F080E00895FC01F5964A
:1020D000DC01A153BF4F2D913C91E217F30750F45F
:1020E00028E0DB0101900D922A95E1F7FC0185AD16
:1020F00096AD089580E090E00895CF92DF92EF9240
:10210000FF920F931F93CF93DF938C01CA01680155
:1021100045E3C40ED11C7801EFECEE0EF11CF70183
:1021200040815181C416D50678F548E0F601DB01FF
:1021300001900D924A95E1F7F801C5ADD6AD211594
:10214000310551F0A901C217D30708F4AE01B80157
:10215000615C7F4F0E94FF214AE950E04C1B5D0B00
:10216000BE01615C7F4F600F711FC6010E94082293
:1021700026EF3FEF2C1B3D0BF70180819181820FF1
:10218000931F9183808302C0C0E0D0E0CE01DF9135
:10219000CF911F910F91FF90EF90DF90CF90089516
:1021A000FC01E059FE4F20813181AB0142235323D2
:1021B000FC0182A993A94817590761F4209530952D
:1021C00083E0220F331F8A95E1F72623372381E02E
:1021D000232B09F080E00895BF92CF92DF92EF9217
:1021E000FF920F931F93CF93DF937C018B01FC0130
:1021F000E359FE4FD080C1803296B080FB018281CE
:1022000020819181C22FD92F823020F081E08383F9
:1022100090E024C0BE01C701C3DF81111EC0F701D9
:10222000E059FE4F20813181BE0162237323F70103
:1022300042A953A96417750739F08B2D65E00E94F8
:102240006E1FCD2DDC2D0AC0C90123E0880F991F18
:102250002A95E1F78760C823D92395E0F801D18357
:10226000C083928381E0DF91CF911F910F91FF9006
:10227000EF90DF90CF90BF900895DC01D2962D9122
:102280003C91D397E0E04FEF5FEFBA0162237323F5
:10229000672B39F0B3E0440F551FBA95E1F7EF5FB4
:1022A000F4CFDC01D196EC9340955095FC01E059B8
:1022B000FE4F51834083A3E056954795AA95E1F7D9
:1022C0003397BA01622373237183608341155105EB
:1022D00059F063E0369527956A95E1F773E05695D6
:1022E00047957A95E1F7F2CFFC01E159FE4F208343
:1022F00008956115710551F0862F8770863040F47E
:10230000F3E076956795FA95E1F7F3CF81E00895CC
:1023100080E00895882379F090E001979C01220FD6
:10232000331F280F391F81E090E002C0880F991FEA
:102330002A95E2F7089580E090E00895CF93DF9327
:10234000CDB7DEB728970FB6F894DEBF0FBECDBF6E
:102350002CEC29832A832B832C832D831E821F82BE
:1023600018869C0141E021153105C1F0611102C0C0
:10237000009769F4D901A770BB27A25EBD4F5C919D
:10238000A1E0B0E0AC0FBD1FA40FB11D5C93B3E0A2
:1023900036952795BA95E1F74F5FE5CF611102C0F9
:1023A000892B39F4E62FF0E0E25EFD4F80818983CE
:1023B00006C0E42FF0E0E35EFD4F80818A8329812F
:1023C0003A814B815C816D817E818F8198852896D1
:1023D0000FB6F894DEBF0FBECDBFDF91CF91089549
:1023E000BF92CF92DF92EF92FF920F931F93CF9302
:1023F000DF93EC01162F6A01BA017BDF882309F411
:1024000052C0DBAACAAA8FA598A9FC0120812F3F40
:1024100009F449C021812F3F09F445C01F3F11F045
:10242000612F9DD940E060E08FA598A9DDDB8FA5E5
:1024300098A9C3DB8AA99BA966E070E00E947A1F75
:10244000682F660F6B5F45E08FA598A9B5DC09E1A1
:1024500010E020E030E009831A832B833C838BE477
:1024600090E09E838D83CE0108DF16E0B12EBA94F2
:10247000FFEFBF1661F06B2DC60160DF79018A01A5
:102480009B01AC016B2D8FA598A9D7DAF0CF8FA552
:1024900098A9DF91CF911F910F91FF90EF90DF905E
:1024A000CF90BF9051CBDF91CF911F910F91FF90B3
:1024B000EF90DF90CF90BF9008959F92AF92BF9220
:1024C000CF92DF92EF92FF920F931F93CF93DF9300
:1024D000EC01CB01F22E642F31DF8901942EA52E61
:1024E000B62EC72ED82EE92E8AA582FD03C08FA551
:1024F00098A93BD98FA598A9FF2011F040E001C011
:1025000041E060E071DB292D3A2D4B2D5C2D6D2DC6
:102510007E2D8FA598A959DA2F2D4CA9BE01695F90
:102520007F4F8FA598A98DD9F82E8AA582FD0EC060
:1025300049815A816B817C8120E08FA598A9B7D908
:10254000F82E40E060E08FA598A94EDB8F2DDF913B
:10255000CF911F910F91FF90EF90DF90CF90BF90A0
:10256000AF909F9008958F929F92AF92BF92CF921B
:10257000DF92EF92FF920F931F93CF93DF9300D0E0
:1025800000D0CDB7DEB78C017B01D42EFC01C58411
:10259000B0DE882309F48DC08FEB8C0DCC24C3945E
:1025A0008F3708F0C12C19821A821B821C82FA8292
:1025B000E982DB82BE016F5F7F4FC8010DDE69815A
:1025C0007A812C814B81C80178DFF1E0DF1225C0D0
:1025D000811102C0F12C65C089819A818E159F05F9
:1025E000F1F4CC20E1F081ECF801858787819085BA
:1025F000928781879A838983DB821C82BE016F5F09
:102600007F4FC801E9DD88E0F80184AB69817A81F8
:102610002C814B81C80151DF02C08823D9F2898106
:102620009A818E159F0519F4FF24F3943AC0DD209A
:1026300019F0F3E0DF12F8CFCC20B1F3F80182A556
:1026400082FF11C0418152816381748120E087A59E
:1026500090A92DD9F80182A58B7F82A740E060E088
:1026600087A590A9C1DAF80187A590A96DDA0E9423
:10267000CD096B017C01C8012DD0813CA9F20E94DB
:10268000CD096C197D098E099F09F80125813681D4
:102690004901A12CB12C86169706A806B90658F751
:1026A00099CFF80182A582FD03C087A590A94CDAD5
:1026B0008F2D0F900F900F900F90DF91CF911F9162
:1026C0000F91FF90EF90DF90CF90BF90AF909F90D1
:1026D0008F9008958F929F92AF92BF92CF92DF9288
:1026E000EF92FF920F931F93CF93DF931F92CDB77B
:1026F000DEB78C01FC0142A541FF0EC07801F7E076
:10270000EF0EF11C680181E9C81A8EEFD80A94E235
:10271000A92E99E0B92E33C0FC01E153FF4F9C0173
:102720002B5C3F4F40FD07C080819181821B930B42
:10273000893791051CF3808191812817390708F4A6
:10274000B6C04E7FF80142A7D9CFFC0121812F3FAF
:1027500009F4ADC0BE016F5F7F4F0ED9882309F425
:10276000A6C0F80187A590A9EBD8F80184AB883002
:1027700070F46AE070E080E090E00E94FC09F801EB
:1027800087A590A9FC0120812F3FF9F690C0482F22
:10279000B701F80187A590A90ED9F8018184928428
:1027A000B401C801A6DD882351F3F801858522A96B
:1027B00033A98216930609F03EC0823801F38038AF
:1027C00091F4F4E28F16F9E09F06D9F0F801B28691
:1027D000A18642E064E279E0C801C5DE6AE070E00B
:1027E00080E090E041C0833C61F48114910449F0A1
:1027F000F801908687821286118640E060E070E0E2
:1028000053C0F80191A5992319F087FF0CC002C0AD
:10281000813C49F49CE6980F933028F0883C19F0ED
:10282000833809F045C0B701C801E3DA823009F006
:10283000A6CF83E83DC0F0E48F16910499F5823C61
:10284000D1F4243289E03807B1F0F80182A583FD84
:1028500096CF878190859287818730872783F6017D
:10286000608170E080E090E00E94FC09F8016185E1
:10287000728542E019C0B701C801BBDA982EF80191
:102880008081882359F081A945DDBC0183E0660F72
:10289000771F8A95E1F744E0C80165DEF2E09F12F8
:1028A0006ECFC7CF41E0B401C8015DDE68CF80E0E4
:1028B0000F90DF91CF911F910F91FF90EF90DF90DC
:1028C000CF90BF90AF909F908F900895EF92FF921E
:1028D0000F931F93CF93DF93EC017B01BA018AA979
:1028E0009BA9F70191838083DE01179688E0019010
:1028F0000D928A95E1F72115310529F0A901CE0144
:102900000F960E94FF21F701628173810833110540
:1029100061F06034710511F043E001C044E06017DC
:10292000710709F442E0B80101C040E0CE01DF9137
:10293000CF911F910F91FF90EF9015CE2F923F9264
:102940004F925F926F927F928F929F92AF92BF92BF
:10295000CF92DF92EF92FF920F931F93CF93DF936B
:10296000EC017B015A01690148010E94CD094BA489
:102970005CA46DA47EA46419750986099709693160
:1029800071058105910520F4CE01A4DE87FFEDCF0E
:1029900088EC90E00E94210A89E1C816D10460F415
:1029A00088E08C0D8CAB84019601A501B701CE01A6
:1029B0008DDF811189C081C0E1E9CE16D10408F014
:1029C00085C0C60168E170E00E947A1F21E0892B72
:1029D00009F420E0C60168E170E00E947A1F722EBF
:1029E000760EF701828193818034910539F08AA5B2
:1029F00084608AA78FA598A90E94B50BF70146802D
:102A0000612C512C24E9222E36E9332EF7017782EE
:102A1000F1E07F1204C0F7013682478208C05110EE
:102A200003C0F701268203C085E9F7018683E8E148
:102A30005E9EA00111249601241B350B293131051E
:102A400010F028E130E088E0820F8CAB4A0D5B1D6E
:102A50008401B701CE013ADF182F81110BC062E06B
:102A600070E080E090E00E94FC096394F2E0F615CB
:102A700020F405C07A945394612C7110C7CFF701EC
:102A800046828AA582FF12C049815A816B817C816E
:102A900020E08FA598A90E94570C182F8FA598A900
:102AA00053D840E060E08FA598A99ED88AA58B7F77
:102AB0008AA7112359F0772039F00E94CD096BA71E
:102AC0007CA78DA79EA702C081E001C080E0DF91B6
:102AD000CF911F910F91FF90EF90DF90CF90BF901B
:102AE000AF909F908F907F906F905F904F903F90AE
:102AF0002F900895CF92DF92EF92FF920F931F9342
:102B0000CF93DF9300D000D0CDB7DEB77C016B014F
:102B1000802F60E470E0F60173836283F70162A99D
:102B200073A9F601718360832B833C8349835A83A5
:102B3000F1DB8C012B813C8149815A81B601C701AF
:102B4000FDDE0F900F900F900F90DF91CF911F91AE
:102B50000F91FF90EF90DF90CF9008950F931F9308
:102B600008E310E0EBDE1F910F910895FC017383E1
:102B7000628380910801909109019C012F5F3F4F72
:102B80003093090120930801958384834683089537
:102B9000FC0177836683518740870895CF92DF9247
:102BA000EF92FF920F931F93CF93DF93CDB7DEB7D2
:102BB00028970FB6F894DEBF0FBECDBF7C016A0127
:102BC000FC01808191818432994071F0422FCE01C5
:102BD0000196CCDF9801A601BE016F5F7F4FF70120
:102BE00080859185BBDF01C080E028960FB6F89400
:102BF000DEBF0FBECDBFDF91CF911F910F91FF9030
:102C0000EF90DF90CF900895CF92DF92EF92FF92F6
:102C10000F931F93CF93DF93CDB7DEB729970FB6EE
:102C2000F894DEBF0FBECDBF8C016987DC01129620
:102C30008C911297811118C015963C91462F80E017
:102C400090E020E02317B1F0D8011396ED91FC91AC
:102C50001497E80FF91F03965081541303C0818124
:102C6000928155C02F5FEECFF8018081918184322F
:102C7000994011F48FEF45C08985882309F443C03A
:102C80001C821B8280910801909109019C012F5F99
:102C90003F4F30930901209308019E838D8384EC7C
:102CA0008F8322E030E0AE01475F5F4FBE016F5F70
:102CB0007F4FD80118968D919C9119974FDF8823EB
:102CC000C9F20E94CD096B017C01F80180859185D4
:102CD00001DD843C61F00E94CD096C197D098E09EB
:102CE0009F09673971058105910578F3C3CFD80134
:102CF0001896ED91FC9119972785308937FF06C00A
:102D00008EEF9FEF04C080E090E001C0C9012996DA
:102D10000FB6F894DEBF0FBECDBFDF91CF911F91EC
:102D20000F91FF90EF90DF90CF9008953F924F92D8
:102D30005F926F927F928F929F92AF92BF92CF924B
:102D4000DF92EF92FF920F931F93CF93DF9300D008
:102D500000D0CDB7DEB77C016B01342E3A832983D6
:102D6000FC01808191818432994011F480E038C067
:102D70000E94CD09011103C01C821B8229C022E3DD
:102D8000422E512C612C712C4B015C01F8EB8F0E03
:102D9000FBE09F1EA11CB11C602FC70135DF9C8387
:102DA0008B8397FF15C00E94CD0986169706A8064B
:102DB000B906E0F28B819C810296C1F222E3420EB9
:102DC000511C611C711CC301B2010E94FC09E4CFBB
:102DD00009811A81232DA6016B817C81C701DEDE6A
:102DE0000F900F900F900F90DF91CF911F910F9147
:102DF000FF90EF90DF90CF90BF90AF909F908F901B
:102E00007F906F905F904F903F900895CF92DF92A8
:102E1000EF92FF920F931F93CF93DF93CDB7DEB75F
:102E20002A970FB6F894DEBF0FBECDBF8C017A870C
:102E30006987862F972F8F3F2FEF920721F4D801B4
:102E400012968C9121C0009709F45AC0F801208194
:102E5000318121153105D1F4758120E030E060E049
:102E600001C06F5F671709F448C0D8011396ED9150
:102E7000FC911497E20FF31F2D5F3F4F4181528168
:102E80004817590771F7808190E03CC024323940DF
:102E9000A1F146EC60E070E0CE01019667DE22E031
:102EA00030E0AE01475F5F4FBE016F5F7F4FF801BB
:102EB0008085918553DE882301F10E94CD096B0145
:102EC0007C01D80118968D919C91199703DC863C62
:102ED00061F00E94CD096C197D098E099F09653F3B
:102EE00071408105910568F308C0D8011896ED91ED
:102EF000FC9119978785908905C08FEF9FEF02C0DD
:102F000080E090E02A960FB6F894DEBF0FBECDBFEA
:102F1000DF91CF911F910F91FF90EF90DF90CF90B5
:102F20000895DF92EF92FF920F931F93CF93DF9359
:102F300000D0CDB7DEB78C01DC0118968D919C9145
:102F40001997C8DBD82EF80180819181843299408D
:102F500009F46AC023ECD21205C081E0D8011A96A8
:102F60008C9362C08D2D8D7F843CA1F5F801828108
:102F7000811130C00084F185E02D7F01B7E0EB0EB8
:102F8000F11C278130853287218724ECD21211C0B1
:102F90006785C80139DE9A83898322E030E0AE017B
:102FA0004F5F5F4FB701D80118968D919C9119978B
:102FB0000FC0678570E0C80129DF9A83898322E00A
:102FC00030E0AE014F5F5F4FB701F801808591851A
:102FD000C5DD2AC085ECD81227C0D80112968C9185
:102FE000811122C0D80118966D917C91199740E00B
:102FF000F80185814817C0F4D8011396ED91FC9132
:103000001497B3E04B9FE00DF11D11248181928153
:10301000DB0117962D913C9118978217930711F4B5
:10302000128211824F5FE4CF8D2D0F900F90DF91B0
:10303000CF911F910F91FF90EF90DF900895FF9235
:103040000F931F93CF93DF93CDB7DEB728970FB6BB
:10305000F894DEBF0FBECDBF8C0134E0F32EFA949E
:1030600031F0F801808191818432994049F4D8018E
:1030700016968D919C9117970E94B50B80E02FC0FA
:10308000C8014FDFD80116968D919C9117970E9429
:10309000520C811108C0D8011896ED91FC91199736
:1030A00082A580FF02C081E01AC042E860E070E0C3
:1030B000CE0101965BDD20E030E040E050E0BE0153
:1030C0006F5F7F4FF8018085918548DD8111EBCFDF
:1030D00067E670E080E090E00E94FC09C0CF28968F
:1030E0000FB6F894DEBF0FBECDBFDF91CF911F9119
:1030F0000F91FF9008956F927F928F929F92AF925F
:10310000BF92CF92DF92EF92FF920F931F93CF93D4
:10311000DF93CDB7DEB760970FB6F894DEBF0FBE72
:10312000CDBF7C01062F42EC60E470E0CE01099631
:103130001DDD20E030E040E050E0BE01675F7F4FE2
:10314000D70118968D919C911997D4DC0E94CD09D6
:103150004B015C01D12C18E0F70180859185BADA2A
:10316000823C89F4DE011196AD0DB11DAD0DB11D8E
:10317000F701808591850796FC01812F01900D92C2
:103180008A95E1F7D3940E94CD09681979098A09D3
:103190009B09683371058105910520F4F3E0FD1565
:1031A000D8F604C0D11002C000E094C0C12C712C2C
:1031B00043EC642ECD14E0F56F86D70112968C9106
:1031C0001297888BFE013196EC0DF11DEC0DF11D6F
:1031D000008111811C870B8720E030E040E050E047
:1031E000BE01675F7F4F18968D919C911997A6DB62
:1031F0000E94CD094B015C010E94CD096819790933
:103200008A099B09613E71058105910548F4F70122
:10321000808591855FDA782EF0E88F13EDCFCD2C85
:1032200065E070E080E090E00E94FC09C394C2CFAA
:1032300080E87812B9CFD7011896ED91FC911997D3
:1032400087859089009709F4AFCF368512962C9127
:103250003213AACFD70111969C938E9316968D9117
:103260009C9117970E94B50B6AE070E080E090E0B7
:103270000E94FC09F701408151816FEF80859185A3
:10328000AFD81C861B8681E88F8717E020E030E0EE
:1032900040E050E0BE01675F7F4FF7018085918578
:1032A0005DDC082F811116C0115069F444E259E029
:1032B0006FEFF7018085918593D824E239E0D7013B
:1032C0002D933C9307C063E070E080E090E00E94A3
:1032D000FC09DCCF802F60960FB6F894DEBF0FBEDE
:1032E000CDBFDF91CF911F910F91FF90EF90DF90B5
:1032F000CF90BF90AF909F908F907F906F900895E8
:103300007F928F929F92AF92BF92CF92DF92EF9275
:10331000FF920F931F93CF93DF93EC014A015B0160
:103320008E819F810E94D80C882319F080E090E064
:103330005AC08E819F810E94B50BE885F98582A5D0
:10334000826082A76AE070E080E090E00E94FC0961
:1033500044E259E06FEF8885998542D884E299E08C
:10336000998388830E94CD096B017C0110E0712C48
:103370000AE0672DCE01BFDE81112EC00E94CD096B
:103380006C197D098E099F0986169706A806B9064D
:1033900068F2E12FF0E03196472D50E04F5F5F4F2C
:1033A000E49F9001E59F300DF49F300D1124275EBE
:1033B0003F4F220F331FB901882777FD8095982F43
:1033C0000E94FC097394872D8370782E81E0810F11
:1033D000602F84D5192FCDCFE885F98582A58D7F03
:1033E00082A788819981DF91CF911F910F91FF90E2
:1033F000EF90DF90CF90BF90AF909F908F907F9095
:1034000008958F929F92AF92BF92CF92DF92EF92E8
:10341000FF920F931F93CF93DF931F92CDB7DEB729
:103420004C015A0168017901FC0186819781698309
:103430000E947D0EF40182816981882329F084E253
:1034400099E0918380830AC086E090E06983C7D5C4
:10345000F40194838383118210826981F401638B68
:10346000868197810E94AF0BB501F4018681978117
:103470000E943E0EF4018085918521E0FC0121A788
:10348000F4012281222349F0B701A601C40138DFEB
:1034900021E0892B49F420E007C0F40140815181EB
:1034A0006FEF0E94F01121E0822F0F90DF91CF91FA
:1034B0001F910F91FF90EF90DF90CF90BF90AF9052
:1034C0009F908F900895FC0162830895CF93CFB7AA
:1034D000F89480912205811123C0E6ECF0E08491FC
:1034E000E2EBF0E09491E82FF0E0EE0FFF1FEC51DB
:1034F000FF4FA591B4918C91892319F461E08AE082
:1035000016D361E08AE0DAD28CB580618CBD8CB5CF
:1035100080648CBD61E08DE0D1D261E08BE0CED2E1
:10352000809122058F5F80932205CFBFCF910895B0
:10353000DC0115966C93159716964C93169770E0D0
:10354000FB01E855FF4FE4911796EC931797FB01A9
:10355000E454FF4F649118966C93189740E85EE32B
:1035600060E070E01D964D935D936D937C93509752
:103570000895CF93DF93EC0162E08D819FD240E309
:1035800058EF6FEF7FEF49875A876B877C87DF9112
:10359000CF910895AF92BF92CF92DF92EF92FF92B8
:1035A0000F931F93CF93DF93EC01AF80662311F04D
:1035B000BA2C01C0B12CA885B0E0AA0FBB1FA05344
:1035C000BF4F40E050E0BA01FD0185919491FC01AC
:1035D00080818A218B1112C08A019B010F5F1F4FCE
:1035E0002F4F3F4FCD84DE84EF84F8884C155D0566
:1035F0006E057F0538F4B901A801E6CF342F252FD9
:10360000CB0104C030E020E080E090E0632F722F17
:10361000DF91CF911F910F91FF90EF90DF90CF90AE
:10362000BF90AF900895CF92DF92EF92FF920F93E9
:103630001F93CF93DF93CDB7DEB7C054D1400FB601
:10364000F894DEBF0FBECDBF8C01F62E0E94CD09CF
:10365000F11016C0F801C184D284E384F4849B0184
:10366000AC012C193D094E095F0969017A0130ED61
:10367000C31637E0D306E104F10410F48189B1C028
:10368000F80161877287838794871482138212827C
:103690001182108261E085814AD26AEF70E080E099
:1036A00090E00E94FC0961E0F801858107D260E0AA
:1036B000F80185813CD264E170E080E090E00E94F6
:1036C000FC09F89461E0F801858131D288E290E04C
:1036D0000E94210A62E0F8018581F0D18AE090E041
:1036E0000E94210A60E0C80155DF672B682B692B17
:1036F00039F061E0C8014EDF672B682B692B21F49C
:10370000F801118A78946CC06E01FFEBCF1AFEEFBE
:10371000DF0A9E012F5F3F4F790160E0C8013ADF69
:10372000F701608371838283938361E0C80132DF94
:10373000F7016483758386839783F8E0EF0EF11CAD
:10374000EC14FD0451F778949E012F5F3F4F7901EF
:1037500020E030E0F70140815181628173818481F2
:103760009581A681B7814115510561057105B1F1BA
:103770000097A105B10591F1F901F595E795F5954A
:10378000E795F595E795E00FF11FD080DD0C481720
:1037900059076A077B0710F0D08203C08D2D816026
:1037A00080832F5F3F4FF8E0EF0EF11C2832310588
:1037B00089F6F801248130E04081818190E0840F16
:1037C000911D4281840F911D4381840F911D992782
:1037D0002817390719F481E0818B03C0F801118A99
:1037E00080E0C05CDE4F0FB6F894DEBF0FBECDBFE9
:1037F000DF91CF911F910F91FF90EF90DF90CF90CD
:103800000895CF92DF92EF92FF920F931F93CF9381
:10381000DF93EC01162F642F06DF882309F43BC0E9
:103820008E818B3031F008F436C08551823038F00B
:1038300032C06A8170E080E090E05FD21FC00A81F0
:10384000602F6F7770E080E090E059D220E030E0A8
:1038500040E853E4E0D26B017C016B8170E080E0D2
:1038600090E04DD29B01AC01C701B601E2D12DEC35
:103870003CEC4CEC5DE3CFD207FD9058112379F07E
:1038800026E636E646EE5FE3C6D220E030E040E0D2
:1038900052E4CFD104C060E070E080EC9FE7DF919C
:1038A000CF911F910F91FF90EF90DF90CF900895EF
:1038B000CF92DF92EF92FF92CF93DF93EC0160E023
:1038C000B2DE882349F18E818B3001F128F18551D8
:1038D000823010F5688170E080E090E00ED220E048
:1038E00030E040E853E497D26B017C01698170E0DD
:1038F00080E090E004D29B01AC01C701B60199D1F0
:103900002DEC3CEC4CEC5DE386D20AC0688170E0A3
:1039100080E090E0F2D104C060E070E080EC9FE7CE
:10392000DF91CF91FF90EF90DF90CF9008950F93AC
:103930001F93CF93DF93EC018C0106551F4FCE01EF
:103940002BD16196C017D107D1F7DF91CF911F918D
:103950000F9108956A3038F4FC0121E16202E00D14
:10396000F11D112410820895CF92DF92EF92FF9201
:103970001F93CF93DF936A017B01EC011AE08881EA
:10398000882321F0B701A601CE0109D1115061961B
:103990001111F5CFDF91CF911F91FF90EF90DF9044
:1039A000CF900895CF93DF93EC010E94CD09AB0136
:1039B000BC01CE01DF91CF91D7CF20E0FC01308157
:1039C000332331F02F5F41962A30C1F78FEF0895EE
:1039D000822F0895CF92DF92EF92FF920F931F9361
:1039E000CF93DF9300D000D0CDB7DEB76C01790163
:1039F00049835A836B837C83E0DF282F49815A8176
:103A00006B817C818F3FD9F081E12802C00CD11CF1
:103A1000112481E0F60180834183528363837483A0
:103A200016830583F286E18629830E94CD09F6017B
:103A30006387748785879687108A17862981822FE6
:103A40000F900F900F900F90DF91CF911F910F91DA
:103A5000FF90EF90DF90CF9008950F931F930FEF9B
:103A60001FEFB8DF1F910F910895833081F028F484
:103A7000813099F08230A1F008958730A9F0883024
:103A8000B9F08430D1F4809180008F7D03C08091A3
:103A900080008F7780938000089584B58F7702C06F
:103AA00084B58F7D84BD08958091B0008F7703C069
:103AB0008091B0008F7D8093B0000895CF93DF9305
:103AC00090E0FC01E855FF4F2491FC01E454FF4FC6
:103AD0008491882349F190E0880F991FFC01EC51F3
:103AE000FF4FA591B49186529F4FFC01C591D4918F
:103AF0009FB7611108C0F8948C91209582238C9314
:103B0000888182230AC0623051F4F8948C91322F5C
:103B1000309583238C938881822B888304C0F8940A
:103B20008C91822B8C939FBFDF91CF9108950F933F
:103B30001F93CF93DF931F92CDB7DEB7282F30E0CE
:103B4000F901EC56FF4F8491F901E855FF4F1491AC
:103B5000F901E454FF4F04910023C1F0882319F0C8
:103B6000698383DF6981E02FF0E0EE0FFF1FE652EB
:103B7000FF4FA591B4919FB7F8948C91611103C048
:103B80001095812301C0812B8C939FBF0F90DF91F3
:103B9000CF911F910F910895FC0110820895CF924B
:103BA000DF92EF92FF92CF93DF93EC016A017B01EA
:103BB0008B859C85AD85BE859A01AB01281B390B91
:103BC0004A0B5B0BDA01C90149815A816B817C8107
:103BD00084179507A607B707D0F08881813019F0C0
:103BE000823029F00BC0E985FA85099507C061E0AC
:103BF0008885811160E068878F8199DFCB86DC86BC
:103C0000ED86FE868F8598890196988B8F878D81AA
:103C10009E8197FD06C02F853889281739070CF03B
:103C20001882DF91CF91FF90EF90DF90CF900895B1
:103C30005058BB27AA270ED0B4C0A5D030F0AAD0C8
:103C400020F031F49F3F11F41EF49AC00EF4E09579
:103C5000E7FB90C0E92FB6D080F3BA17620773076D
:103C60008407950718F071F49EF5CEC00EF4E09528
:103C70000B2EBA2FA02D0B01B90190010C01CA0126
:103C8000A0011124FF27591B99F0593F50F4503ED1
:103C900068F11A16F040A22F232F342F4427585FC3
:103CA000F3CF469537952795A795F0405395C9F7DB
:103CB0007EF41F16BA0B620B730B840BBAF0915093
:103CC000A1F0FF0FBB1F661F771F881FC2F70EC032
:103CD000BA0F621F731F841F48F487957795679505
:103CE000B795F7959E3F08F0B3CF9395880F08F0EE
:103CF0009927EE0F979587950895E89409C097FB4B
:103D00003EF490958095709561957F4F8F4F9F4FB2
:103D10009923A9F0F92F96E9BB279395F6958795F6
:103D200077956795B795F111F8CFFAF4BB0F11F4B9
:103D300060FF1BC06F5F7F4F8F4F9F4F16C0882360
:103D400011F096E911C0772321F09EE8872F762F96
:103D500005C0662371F096E8862F70E060E02AF0D7
:103D60009A95660F771F881FDAF7880F96958795C3
:103D700097F9089597F99F6780E870E060E00895EB
:103D80009FEF80EC089500240A9416161706180673
:103D90000906089500240A9412161306140605064F
:103DA0000895092E0394000C11F4882352F0BB0FE0
:103DB00040F4BF2B11F460FF04C06F5F7F4F8F4F43
:103DC0009F4F089557FD9058440F551F59F05F3F7E
:103DD00071F04795880F97FB991F61F09F3F79F02D
:103DE00087950895121613061406551FF2CF4695AF
:103DF000F1DF08C0161617061806991FF1CF869531
:103E00007105610508940895E894BB276627772714
:103E1000CB0197F908950BD0C4CFB5DF28F0BADFF6
:103E200018F0952309F0A6CFABCF1124EECFCADF4F
:103E3000A0F3959FD1F3950F50E0551F629FF001BD
:103E4000729FBB27F00DB11D639FAA27F00DB11D16
:103E5000AA1F649F6627B00DA11D661F829F22279F
:103E6000B00DA11D621F739FB00DA11D621F839F26
:103E7000A00D611D221F749F3327A00D611D231FFC
:103E8000849F600D211D822F762F6A2F11249F574A
:103E900050408AF0E1F088234AF0EE0FFF1FBB1F6D
:103EA000661F771F881F91505040A9F79E3F51050C
:103EB00070F060CFAACF5F3FECF3983EDCF38695BD
:103EC00077956795B795F795E7959F5FC1F7FE2BB7
:103ED000880F911D9695879597F90895991B79E01C
:103EE00004C0991F961708F0961B881F7A95C9F78A
:103EF00080950895AA1BBB1B51E107C0AA1FBB1FD9
:103F0000A617B70710F0A61BB70B881F991F5A9565
:103F1000A9F780959095BC01CD010895A1E21A2ED4
:103F2000AA1BBB1BFD010DC0AA1FBB1FEE1FFF1F5D
:103F3000A217B307E407F50720F0A21BB30BE40BAD
:103F4000F50B661F771F881F991F1A9469F76095F4
:103F50007095809590959B01AC01BD01CF010895AE
:103F60000FD0A59F900DB49F900DA49F800D911D23
:103F700011240895EE0FFF1F0590F491E02D099490
:103F8000A29FB001B39FC001A39F700D811D11249A
:103F9000911DB29F700D811D1124911D0895EF9206
:103FA0000F931F93CF93DF93E80147FF02C034E1E3
:103FB00001C034E0E42FFF27E7FDF095F7FF03C0D1
:103FC000F195E195F109E32E022F2E2FAE0189D252
:103FD000CE01DF91CF911F910F91EF900895CF9374
:103FE000DF938230910510F482E090E0E0912505A6
:103FF000F091260520E030E0A0E0B0E0309739F104
:104000004081518148175907B8F04817590771F492
:1040100082819381109729F013969C938E93129727
:104020002CC0909326058093250527C021153105C6
:1040300031F04217530718F0A901DB0101C0EF016D
:104040009A01BD01DF010280F381E02DD7CF211558
:104050003105F9F0281B390B2430310580F48A81B1
:104060009B816115710521F0FB019383828304C05C
:104070009093260580932505FE01329644C0FE01EB
:10408000E20FF31F819391932250310939832883E2
:104090003AC02091230530912405232B41F420912F
:1040A00002013091030130932405209323052091D0
:1040B0000001309101012115310541F42DB73EB7C2
:1040C0004091040150910501241B350BE09123051B
:1040D000F0912405E217F307A0F42E1B3F0B2817DD
:1040E000390778F0AC014E5F5F4F2417350748F071
:1040F0004E0F5F1F509324054093230581939193A6
:1041000002C0E0E0F0E0CF01DF91CF910895CF93BE
:10411000DF93009709F487C0FC0132971382128263
:10412000C0912505D0912605209781F42081318109
:10413000280F391F8091230590912405821793073A
:1041400079F5F0932405E09323056DC0DE0120E0AE
:1041500030E0AE17BF0750F412964D915C91139763
:104160009D014115510509F1DA01F3CFB383A28313
:1041700040815181840F951F8A179B0771F48D919F
:104180009C911197840F951F0296918380831296BC
:104190008D919C911397938382832115310529F486
:1041A000F0932605E09325053EC0D9011396FC93B4
:1041B000EE9312974D915D91A40FB51FEA17FB077F
:1041C00079F480819181840F951F0296D90111960F
:1041D0009C938E938281938113969C938E931297D6
:1041E000E0E0F0E08A819B81009719F0FE01EC018C
:1041F000F9CFCE01029628813981820F931F209139
:104200002305309124052817390769F4309729F4DC
:10421000109226051092250502C013821282D093B7
:104220002405C0932305DF91CF910895A0E0B0E06D
:10423000EBE1F1E2BFC3EC01CB01209711F4CFDE3B
:10424000B4C0FE01E60FF71F9E0122503109E217AC
:10425000F30708F4A8C0D9010D911C911197061716
:104260001707B0F00530110508F49BC0A8014450B1
:1042700051094617570708F494C002501109061B4C
:10428000170B019311936D937C93CF0140DF89C08D
:104290005B01A01AB10A4E01800E911EA091250566
:1042A000B0912605612C712C60E070E0109709F444
:1042B00049C0A815B905C9F5ED90FC9011976701A3
:1042C00042E0C40ED11CCA14DB0478F147018A18FD
:1042D0009B08640142E0C40ED11C1296BC90129758
:1042E0001396AC91B5E0CB16D10440F0B282A38313
:1042F00091828082D9018D939C9309C00E5F1F4FDC
:104300000E0D1F1DF90111830083EB2DFA2F61158E
:10431000710531F0DB011396FC93EE93129741C0C7
:10432000F0932605E09325053CC06D917C91119793
:104330006616770608F43B01BD0112960D90BC91FC
:10434000A02DB4CF609123057091240568157905DF
:10435000E9F468167906D0F440910001509101010A
:104360004115510541F44DB75EB76091040170915C
:104370000501461B570BE417F507A8F4F093240535
:10438000E0932305F901918380830BC028DE7C0133
:10439000009749F0A801BE0132D0CE01B8DEC701B6
:1043A00004C0CE0102C080E090E0CDB7DEB7EEE001
:1043B0001DC31F93FC0199278827BC01E894119124
:1043C0001032E9F3193010F01E30C8F31B3249F0F7
:1043D0001D3241F4689405C056D0610F711D811DD6
:1043E000911D119110531A30B8F33EF490958095B9
:1043F000709561957F4F8F4F9F4F1F910895FB01DF
:10440000DC0102C001900D9241505040D8F7089550
:104410006817790768F4FB01DC01E40FF51FA40FAE
:10442000B51F02C002900E9241505040D8F7089537
:10443000E6CFFB01DC0101900D920020E1F7089529
:10444000FB01DC014150504048F001900D920020EA
:10445000C9F701C01D9241505040E0F70895453220
:10446000510518F4423008F004C0FB011082CB0162
:104470000895BB274A3031F4992322F4BDE2909588
:1044800081959F4F16C0592F482F372F262F660F23
:10449000771F881F991F660F771F881F991F620F4C
:1044A000731F841F951F660F771F881F991F08951C
:1044B000BB27FB015527AA27880F991FAA1FA417FE
:1044C00010F0A41B83955051B9F7A05DAA3308F0F2
:1044D000A95DA193009779F7B111B1931192CB0126
:1044E00055C26F927F929F92AF92BF92CF92DF920E
:1044F000EF92FF920F931F93CF93DF93CDB7DEB769
:1045000029970FB6F894DEBF0FBECDBF6A01B22E59
:10451000102F0C3320F4FF24F394F00E02C04CE370
:10452000F42E0F2D27E0AE014F5F5F4F57D17981F9
:10453000272F2970213031F0E1FC06C0E0FC06C0D5
:1045400060E005C06DE203C06BE201C060E2AE2D29
:10455000A07173FF36C0662311F084E001C083E0D0
:104560008B1510F4B81A01C0B12CA1110BC0F601C3
:104570008B2D90E2882319F091938150FBCFCB0CC7
:10458000D11CB12C662331F0F601608396012F5FB8
:104590003F4F6901C6010396E2FE05C02EE4F60115
:1045A000208331E404C02EE6F601208331E6318316
:1045B0002283FC012B2D30E22223F1F13193215093
:1045C000FBCF72FF40C0662311F084E001C083E09E
:1045D0008B1510F4B81A01C0B12CA1110BC0F60153
:1045E0008B2D90E2882319F091938150FBCFCB0C57
:1045F000D11CB12C662331F0F601608396012F5F48
:104600003F4F6901C6010396E2FE07C029E4F601A7
:1046100020832EE4218326E406C029E6F6012083C8
:104620002EE6218326E62283FC012B2D30E2222375
:1046300019F031932150FBCFFC01EB0DF11D1082DD
:104640008EEF9FEFB7C0B1E0611101C0B0E04B2F1A
:1046500050E01816190624F49C012F5F3F4F02C04A
:1046600021E030E0240F351F112329F0412F50E0C5
:104670004F5F5F4F02C040E050E0420F531F2B2DB1
:1046800030E04217530714F4B41A01C0B12C2E2D98
:10469000287159F4F6012B2D30E2222319F03193C1
:1046A0002150FBCFCB0CD11CB12CBB2331F0F60138
:1046B000608396012F5F3F4F6901A1110BC0F60186
:1046C0002B2D30E3222319F031932150FBCFCB0C5B
:1046D000D11CB12CF80E0A81372F3071A32E74FF34
:1046E00003C0013309F4FA941F142CF42F2D293040
:1046F00018F028E001C021E0682F392F97FF02C091
:1047000060E030E0462F532F612C712C3EE2932E57
:10471000BC01621B71099B01DC01A41BB50BE1E02C
:10472000F0E0EC0FFD1FAE0FBF1FE12EF12CF19456
:10473000E194F1084F3FFFEF5F0731F4F6019082FB
:10474000B6016F5F7F4F6B01841795074CF02417FC
:10475000350734F4BD01660D771DFB01118101C0E1
:1047600010E341505109FFEF6F1A7F0AB6016F5FE6
:104770007F4F4E155F0524F0F60110836B01DACFF1
:104780004817590739F4063320F4053319F4A110FA
:1047900001C011E3F6011083FB018B2D90E2882309
:1047A00019F091938150FBCFFB01EB0DF11D1082AD
:1047B00080E090E029960FB6F894DEBF0FBECDBF23
:1047C000DF91CF911F910F91FF90EF90DF90CF90ED
:1047D000BF90AF909F907F906F900895283008F021
:1047E00027E03327DA01990F311D87FD916000968C
:1047F0006105710539F432602E5F3D9330E32A95EF
:10480000E1F708959F3F30F080387105610509F0A8
:104810003C5F3C5F3D93913008F08068911DDF93D1
:10482000CF931F930F93FF92EF92192F987F969536
:10483000E92F96959695E90FFF27E85BFE4F99279C
:104840003327EE24FF24A701E7010590089407947D
:1048500028F4360FE71EF81E491F511D660F771FFB
:10486000881F991F0694A1F70590079428F4E70E76
:10487000F81E491F561FC11D770F881F991F661FFD
:104880000694A1F70590079428F4F80E491F561FC7
:10489000C71FD11D880F991F661F771F0694A1F7A8
:1048A0000590079420F4490F561FC71FD81F990F72
:1048B000661F771F881F0694A9F7849110951770BB
:1048C00041F0D695C79557954795F794E7941A9573
:1048D000C1F7EEEEF0E06894159015913591659171
:1048E000959105907FE27395E118F10A430B560B01
:1048F000C90BD009C0F7E10CF11E431F561FC91F99
:10490000D01D7EF4703311F48A95E6CFE8940150FF
:1049100030F0080F0AF40027021708F4202F23951F
:10492000022F7A3328F079E37D932A95E9F710C0B6
:104930007D932A9589F606949795679537951795EF
:104940001794E118F10A430B560BC90BD00998F0E4
:1049500023957E9173957A3308F070E37C9320134E
:10496000B8F77E9170617D9330F0839571E37D930C
:1049700070E32A95E1F71124EF90FF900F911F91BA
:10498000CF91DF91992787FD90950895DC01FC0177
:10499000672F71917723E1F7329704C07C916D9373
:1049A00070836291AE17BF07C8F308952F923F92AC
:1049B0004F925F926F927F928F929F92AF92BF922F
:1049C000CF92DF92EF92FF920F931F93CF93DF93DB
:1049D000CDB7DEB7CA1BDB0B0FB6F894DEBF0FBE38
:1049E000CDBF09942A88398848885F846E847D8485
:1049F0008C849B84AA84B984C884DF80EE80FD8087
:104A00000C811B81AA81B981CE0FD11D0FB6F894FC
:0E4A1000DEBF0FBECDBFED010895F894FFCFBD
:104A1E000000270580008813010053656E64696EDF
:104A2E00673A200052656E6577696E67204164644F
:104A3E00726573730053656E64206661696C2C2019
:104A4E0054657374204F4B004D6573736167652019
:104A5E0072656365697665642C206E6F20696E736E
:104A6E007472756374696F6E7300526563656976EF
:104A7E0065643A20005570646174652066726571D4
:104A8E0075656E6379206368616E67656420746F07
:104A9E0020004E6F20696E737472756374696F6E49
:104AAE0073207265636569766564003B54656D704D
:104ABE00657261747572653B003B48756D6964691A
:104ACE0074793B0052657175657374696E67206900
:104ADE006E737472756374696F6E73004E6F646576
:104AEE00494420756E7365742E204E6577204E6F87
:104AFE00646549443F00536574204E6F64654944B4
:104B0E003A2000436F6E6E656374656400000000AA
:104B1E00006D04E105F1030A04FC034C040D0A00C8
:104B2E006E616E00696E66006F7666002E00C33C85
:064B3E0033CE3EE3EC0063
:00000001FF
