:1000000078C000009DC000009BC0000099C00000A7
:1000100097C0000095C0000093C0000091C0000090
:100020008FC000008DC000008BC0000089C00000A0
:1000300087C0000085C0000083C0000081C00000B0
:100040003BC700007DC0000076C30000A6C30000CF
:1000500077C0000075C0000073C0000071C00000D0
:100060006FC000006DC00000436F6E6E6563746901
:100070006E6720746F20746865206D6573682E2E1E
:100080002E001112131415160A0B0C0D0E0F000181
:100090000203040500000008000201000003040739
:1000A0000000000000000000010204081020408051
:1000B00001020408102001020408102004040404B2
:1000C0000404040402020202020203030303030302
:1000D0000000000023002600290000000000250089
:1000E00028002B0000000000240027002A00C70180
:1000F000FB0311241FBECFEFD8E0DEBFCDBF11E060
:10010000A0E0B1E0EAE5FFE302C005900D92AE3F4A
:10011000B107D9F724E0AEEFB1E001C01D92AD3FC9
:10012000B207E1F710E0C2EFD0E004C02297FE0171
:100130000E94571ECE3ED107C9F7A1D30C94AB1F26
:100140005FCF8EEF91E00C94A41AFF920F931F9350
:10015000CF93DF93CDB7DEB728970FB6F894DEBF05
:100160000FBECDBF0AE010E062E070E080E090E0FA
:100170001CD780E494E00E94CA098EEC92E00E94B1
:10018000660E8823F9F0BE016F5F7F4F8EEC92E020
:100190000E94740E8F81893481F420E030E040E0C9
:1001A00050E0BE016F5F7F4F8EEC92E00E948B0E9D
:1001B0006CE071E082E594E0E8D3FF24F39400E082
:1001C00010E001C0F12C80E494E00E94BB090150D2
:1001D0001109F11008C01016110634F26EE271E038
:1001E00082E594E0D2D380E494E00E94BB09289693
:1001F0000FB6F894DEBF0FBECDBFDF91CF911F9138
:100200000F91FF9008950F93CF93DF93CDB7DEB793
:1002100028970FB6F894DEBF0FBECDBF40E060E078
:1002200088EA92E00E94DD196D837E838F83988730
:1002300060E088EA92E00E94341A69837A838B83B3
:100240009C8380E494E00E94CA098AEB92E00E94B9
:100250009F1567E471E082E594E07CD34D815E8177
:100260006F81788522E030E082E594E039D500E0C6
:1002700024E030E044E5BE016B5F7F4F8AEB92E003
:100280000E94A414811119C08AEB92E00E942D16DD
:1002900081110EC066E571E082E594E076D340E618
:1002A0005AEE60E070E08AEB92E00E948E1705C083
:1002B00067E671E082E594E068D36AE771E082E581
:1002C00094E063D349815A816B817C8122E030E0E4
:1002D00082E594E005D500E024E030E048E4BE018A
:1002E0006F5F7F4F8AEB92E00E94A414811119C0C6
:1002F0008AEB92E00E942D1681110EC066E571E036
:1003000082E594E042D340E65AEE60E070E08AEB8A
:1003100092E00E948E1705C067E671E082E594E0E6
:1003200034D36DE871E082E594E02FD300E021E062
:1003300030E049E460E070E08AEB92E00E94A414AF
:1003400081111AC08AEB92E00E942D1681110EC015
:1003500066E571E082E594E018D340E65AEE60E08D
:1003600070E08AEB92E00E948E1707C067E671E0AA
:1003700082E594E00AD301C0E8DE28960FB6F8942F
:10038000DEBF0FBECDBFDF91CF910F91089548E042
:1003900067E080E494E0B1D760E474E08EEC92E032
:1003A0000E94F20C4EEC52E060E474E08AEB92E0C2
:1003B0000E94D61326E046E165E088EA92E00E94BA
:1003C00074188EEF91E00C94731A0F931F9326E02C
:1003D00040E052EC61E070E082E594E04AD16AE0EE
:1003E0008AEB92E00E9471186FEF7FEF8AEB92E048
:1003F0000E941415892B31F582E594E05AD0892B9F
:1004000099F365EA71E082E594E0A4D241E060E00E
:1004100070E082E594E0E2D48AEB92E00E947118E9
:100420006FEB71E082E594E095D26FEF7FEF8AEB9E
:1004300092E00E9414154AE050E0BC0182E594E08D
:1004400053D3D2CF88EA92E00E94951840910601DA
:1004500050910701609108017091090123E031E09A
:100460008EEF91E00E94FF1A68E670E082E594E06A
:100470007CD200E61AEE20E030E040E050E061E699
:100480008AEB92E00E940F1862E070E080E494E052
:100490000E94170C63E080E494E00E94000C6CEC76
:1004A00071E082E594E071D280E494E01F910F91B5
:1004B00062C7FC01818D228D90E0805C9F4F821B82
:1004C00091098F7399270895FC01918D828D98175A
:1004D00031F0828DE80FF11D858D90E008958FEF4A
:1004E0009FEF0895FC01918D828D981761F0828DA8
:1004F000DF01A80FB11D5D968C91928D9F5F9F7358
:10050000928F90E008958FEF9FEF089582EF93E030
:10051000892B41F080E090E0892B21F063D181119B
:100520000C9400000895FC01848DDF01A80FB11D1B
:10053000A35ABF4F2C91848D90E001968F73992719
:10054000848FA689B7892C93A089B1898C91806406
:100550008C93938D848D981306C00288F389E02DC7
:1005600080818F7D80830895CF93DF93EC01888D08
:100570008823C1F0EA89FB89808185FD05C0A889AF
:10058000B9898C9186FD0EC00FB607FCF5CF80812E
:1005900085FFF2CFA889B9898C9185FFEDCFCE0177
:1005A000C2DFE8CFDF91CF910895CF92DF92FF9223
:1005B0000F931F93CF93DF931F92CDB7DEB76C01DC
:1005C00081E0D60158968C9358975B969C915B97E7
:1005D0005C968C915C97981307C05096ED91FC91B6
:1005E0005197808185FD2DC0F601038D10E00F5FCE
:1005F0001F4F0F731127F02EF601848DF81210C0D3
:100600000FB607FCF9CFD6015096ED91FC915197AA
:10061000808185FFF1CFC601698385DF6981ECCFD9
:10062000838DE80FF11DE35AFF4F6083D6015B967F
:100630000C935B975296ED91FC9153978081806269
:100640000CC0D6015696ED91FC9157976083509659
:10065000ED91FC91519780818064808381E090E0EE
:100660000F90DF91CF911F910F91FF90DF90CF906E
:100670000895BF92CF92DF92EF92FF92CF93DF93D4
:10068000EC016A017B01B22EE889F98982E080835E
:10069000411581EE580761057105A1F060E079E030
:1006A0008DE390E0A70196010E94291E2150310997
:1006B000410951095695479537952795211580E1B0
:1006C000380798F0E889F989108260E874E88EE1CB
:1006D00090E0A70196010E94291E2150310941098D
:1006E00051095695479537952795EC85FD853083BB
:1006F000EE85FF852083188EEC89FD89B082EA891A
:10070000FB89808180618083EA89FB8980818860A0
:100710008083EA89FB89808180688083EA89FB89FC
:1007200080818F7D8083DF91CF91FF90EF90DF906C
:10073000CF90BF9008951F920F920FB60F92112481
:100740002F938F939F93EF93FF93E0916204F09127
:1007500063048081E0916804F091690482FD12C015
:10076000908180916B048F5F8F7320916C0482174E
:1007700051F0E0916B04F0E0EE5AFB4F958F8093BF
:100780006B0401C08081FF91EF919F918F912F9118
:100790000F900FBE0F901F9018951F920F920FB6DB
:1007A0000F9211242F933F934F935F936F937F93F7
:1007B0008F939F93AF93BF93EF93FF9382E594E062
:1007C000B2DEFF91EF91BF91AF919F918F917F9199
:1007D0006F915F914F913F912F910F900FBE0F90AE
:1007E0001F90189582E594E064DE21E0892B09F4DE
:1007F00020E0822F0895109255041092540488EE40
:1008000093E0A0E0B0E08093560490935704A09347
:100810005804B09359048AED91E090935304809367
:10082000520485EC90E090935F0480935E0484EC26
:1008300090E0909361048093600480EC90E090934A
:1008400063048093620481EC90E09093650480934C
:10085000640482EC90E0909367048093660486ECD5
:1008600090E0909369048093680410926B04109256
:100870006C0410926D0410926E0408950895C5D30F
:10088000FDDFA3DDC6E8D2E05CDC2097E9F33EDEC5
:10089000FBCFCF92DF92EF92FF920F931F93CF93F4
:1008A000DF937C016A01EB0100E010E00C151D05EF
:1008B00071F06991D701ED91FC910190F081E02DEB
:1008C000C7010995892B19F00F5F1F4FEFCFC801A2
:1008D000DF91CF911F910F91FF90EF90DF90CF901C
:1008E00008956115710581F0DB010D900020E9F795
:1008F000AD0141505109461B570BDC01ED91FC91B4
:100900000280F381E02D099480E090E00895EF9259
:10091000FF920F931F93CF93DF938C017B01C0E075
:10092000D0E0F701EC0FFD1F6491662359F0F80148
:10093000A081B181ED91FC91C8010995892B11F03D
:100940002196EFCFCE01DF91CF911F910F91FF90B4
:10095000EF900895C6CFDC01ED91FC910190F081FC
:10096000E02D099466EE71E0BCCF0F931F93CF93F7
:10097000DF93EC01CCDF8C01CE01F4DF800F911FFF
:10098000DF91CF911F910F9108950F931F93CF93F4
:10099000DF93EC01A6DF8C01CE01E4DF800F911F15
:1009A000DF91CF911F910F9108958F929F92AF92F7
:1009B000BF92CF92DF92EF92FF920F931F93CF934C
:1009C000DF93CDB7DEB7A1970FB6F894DEBF0FBEA9
:1009D000CDBF7C01C42EE52FCB01D22E19A221E080
:1009E0002D1510F02AE0D22E8E010F5D1F4F8D2C99
:1009F000912CA12CB12C6C2D7E2FA50194010E946D
:100A0000291E8C2DD29E80191124015011098A3083
:100A100014F4805D01C0895CF801808321153105E3
:100A20004105510521F0C22EE32FCA01E4CFB801E0
:100A3000C70157DFA1960FB6F894DEBF0FBECDBF3A
:100A4000DF91CF911F910F91FF90EF90DF90CF90AA
:100A5000BF90AF909F908F900895CF92DF92EF92CA
:100A6000FF920F931F93CF93DF93EC016A017B01F9
:100A70002115310579F4E881F9810190F081E02DAB
:100A8000642FDF91CF911F910F91FF90EF90DF9036
:100A9000CF9009942A303105D9F477FF18C06DE260
:100AA0005ADF8C0144275527BA014C195D096E099C
:100AB0007F092AE0CE0179DF800F911FDF91CF916E
:100AC0001F910F91FF90EF90DF90CF9008952AE053
:100AD000B701A601CE01DF91CF911F910F91FF9039
:100AE000EF90DF90CF9061CF0F931F93CF93DF9361
:100AF000EC019A01AB01662757FD6095762FADDFBB
:100B00008C01CE012FDF800F911FDF91CF911F91BC
:100B10000F9108954F925F926F927F928F929F9262
:100B2000AF92BF92CF92DF92EF92FF920F931F93FB
:100B3000CF93DF93EC016A017B01B22E9A01AB01E6
:100B4000C701B6010E94051E882319F069EE71E005
:100B500027C026013701E89477F82FEF3FEF4FE7E2
:100B60005FE7C301B2010E94051E81110DC02FEF86
:100B70003FEF4FE75FE7C301B2010E944F1C181619
:100B80001CF46DEE71E00CC02FEF3FEF4FE75FE418
:100B9000C701B6010E949E1D1816A4F461EF71E012
:100BA000CE01DF91CF911F910F91FF90EF90DF90D9
:100BB000CF90BF90AF909F908F907F906F905F90FD
:100BC0004F908FCE2FEF3FEF4FE75FECC701B6019D
:100BD0000E944F1C87FDE2CF20E030E0A901C70151
:100BE000B6010E944F1C87FF09C06DE2CE01B3DE43
:100BF0008C01F7FAF094F7F8F09402C000E010E0EE
:100C0000A12C60E070E080E09FE3AB1441F020E0B5
:100C100030E040E251E40E94531CA394F6CF9B01C4
:100C2000AC01C701B6010E94EB1B6B017C010E9465
:100C3000C01C2B013C010E94EC1C9B01AC01C701B4
:100C4000B6010E94EA1B6B017C012AE0B301A201FC
:100C5000CE01ABDE080F191FBB2031F065EF71E04C
:100C6000CE013FDE080F191F7B2C772039F120E0E1
:100C700030E040E251E4C701B6010E94A21D6B01C1
:100C80007C010E94BB1C4B01AA2497FCA094BA2CA7
:100C90002AE030E0B501A401CE01DFDE080F191F04
:100CA000C501B4010E94EE1C9B01AC01C701B60155
:100CB0000E94EA1B6B017C017A94D7CFC801DF91B7
:100CC000CF911F910F91FF90EF90DF90CF90BF9049
:100CD000AF909F908F907F906F905F904F9008950E
:100CE0000F931F93CF93DF93EC0114DF8C01CE01A0
:100CF00039DE800F911FDF91CF911F910F910895E1
:100D00000F931F93CF93DF93EC0120D168877987EE
:100D10008A879B87E881F9810084F185E02DCE01E7
:100D2000099597FF14C012D1088519852A853B853E
:100D3000601B710B820B930B0C811D812E813F81F7
:100D4000601771078207930728F38FEF9FEFDF91FA
:100D5000CF911F910F910895FF920F931F93CF93FF
:100D6000DF93EC018B01F42ECE01CADF9C0197FDCD
:100D700028C08D32910519F1C0970A9710F1FF2014
:100D800019F02E323105F9F001301105F9F0023079
:100D9000110569F42D30310551F034F42950310931
:100DA0002230310520F012C02032310579F4E8817B
:100DB000F9810680F781E02DCE010995D5CF8DE22E
:100DC00003C0C90105C08EE290E002C08FEF9FEF23
:100DD000DF91CF911F910F91FF900895CF92DF92F5
:100DE000FF920F931F93CF93DF9300D000D0CDB726
:100DF000DEB76C01042F40E0AFDFFC0197FD4AC075
:100E000020E030E0A901F12C112707FD1095E01733
:100E1000F107E9F0ED32F105C1F0CF01C0970A9773
:100E2000B0F4AAE0B0E00E944B1E9B01AC01CF01E0
:100E3000AA2797FDA095BA2F280F391F4A1F5B1FBD
:100E4000205331094109510902C0FF24F394D6010E
:100E5000ED91FC910680F781E02DC60129833A834C
:100E60004B835C830995C6014BDFFC01C097298148
:100E70003A814B815C810A9750F2E017F10739F211
:100E8000FF2061F066277727CB01621B730B840B71
:100E9000950B06C060E070E0CB0102C0CA01B90149
:100EA0000F900F900F900F90DF91CF911F910F91A6
:100EB000FF90DF90CF9008951F920F920FB60F9280
:100EC00011242F933F938F939F93AF93BF93809160
:100ED000F0049091F104A091F204B091F3043091E8
:100EE000EF0423E0230F2D3720F40196A11DB11D3F
:100EF00005C026E8230F0296A11DB11D2093EF0423
:100F00008093F0049093F104A093F204B093F3045F
:100F10008091F4049091F504A091F604B091F70447
:100F20000196A11DB11D8093F4049093F504A09344
:100F3000F604B093F704BF91AF919F918F913F91C9
:100F40002F910F900FBE0F901F9018952FB7F89408
:100F50006091F0047091F1048091F2049091F30497
:100F60002FBF08953FB7F8948091F4049091F50451
:100F7000A091F604B091F70426B5A89B05C02F3FB9
:100F800019F00196A11DB11D3FBF6627782F892F4B
:100F90009A2F620F711D811D911D42E0660F771F10
:100FA000881F991F4A95D1F70895CF92DF92EF924B
:100FB000FF92CF93DF936B017C01D4DFEB01C1146F
:100FC000D104E104F10479F05BD0CCDF6C1B7D0B24
:100FD000683E7340A0F381E0C81AD108E108F10827
:100FE000C851DC4FECCFDF91CF91FF90EF90DF90B5
:100FF000CF9008958230910538F0880F991F880F9F
:10100000991F05970197F1F70895789484B5826048
:1010100084BD84B5816084BD85B5826085BD85B59C
:10102000816085BDEEE6F0E0808181608083E1E84B
:10103000F0E0108280818260808380818160808383
:10104000E0E8F0E0808181608083E1EBF0E0808186
:1010500084608083E0EBF0E0808181608083EAE758
:10106000F0E08081846080838081826080838081E1
:10107000816080838081806880831092C1000895A0
:1010800008958EBD00000DB407FEFDCF8EB5089506
:101090002CB52F7D2CBD2CB5237F2CBD2CB52C7FE2
:1010A0002CBD2DB521602DBDFC0181810E94691BE5
:1010B00085E090E09FCFFC018081918189130C94A1
:1010C000691B089560E0E4CF61E0E2CFEF92FF9208
:1010D0001F93CF93DF931F92CDB7DEB77C01698357
:1010E000F1DF6981862F8F71CCDF8FEFCADF182F78
:1010F000C701EADF812F0F90DF91CF911F91FF9001
:10110000EF900895CF92DF92EF92FF920F931F938B
:10111000CF93DF9300D01F92CDB7DEB78C01F22EB4
:101120004A835B836983CEDF6981862F8F718062FA
:10113000A8DFE82E4A81C42E5B81D52EF40EFC1464
:1011400029F0F60181916F019CDFF9CFC801BCDF66
:101150008E2D0F900F900F90DF91CF911F910F91D7
:10116000FF90EF90DF90CF900895EF92FF921F9342
:10117000CF93DF9300D0CDB7DEB77C014A8369837C
:10118000A1DF6981862F8F7180627BDF182F4A81F2
:10119000842F77DFC70198DF812F0F900F90DF91A9
:1011A000CF911F91FF90EF900895AF92BF92DF9281
:1011B000EF92FF920F931F93CF93DF9300D01F9274
:1011C000CDB7DEB78C01FC01E580F42EE41608F4FF
:1011D000FE2CF8018681811102C0EF1801C0E12CBC
:1011E000C80129836A837B836DDF2981822F49DFD0
:1011F000D82E6A81A62E7B81B72EF60EFA1429F01E
:10120000F50181915F013DDFF9CFEE2021F080E013
:1012100038DFEA94FACFC80157DF8D2D0F900F9079
:101220000F90DF91CF911F910F91FF90EF90DF9082
:10123000BF90AF900895AF92BF92DF92EF92FF926E
:101240000F931F93CF93DF9300D0CDB7DEB78C0100
:10125000FC01E580F42EE41608F4FE2CF8018681EA
:10126000811102C0EF1801C0E12CC80169837A83A3
:1012700029DF81E606DFD82E6981A62E7A81B72E76
:10128000F60EFA1431F08FEFFCDEF50181935F0169
:10129000F8CFEE2021F08FEFF4DEEA94FACFC80108
:1012A00013DF8D2D0F900F90DF91CF911F910F9134
:1012B000FF90EF90DF90BF90AF900895EF92FF9274
:1012C0001F93CF93DF931F92CDB7DEB77C01698365
:1012D000F9DE6981862FD5DE182FC701F5DE812F53
:1012E0000F90DF91CF911F91FF90EF90089562EEE4
:1012F000E5CF61EEE3CF6FEFE1CFFC016083418387
:10130000148280E28583168285E08487178208959F
:10131000462F6E3708F04DE765E027CFCF93DF9378
:10132000EC0160E0C8DE8D859E8564DE6DE1CE0156
:10133000CDDE81FF05C08D859E855CDECE01D9DFC7
:1013400060E0CE01C3DE482F4E7F60E0CE010DDFAE
:1013500062E0CE01BBDEEEE8F0E0E49121E030E0B7
:1013600001C0220FEA95EAF7822B482F62E0CE01F6
:10137000DF91CF91FACECF93DF93EC0160E09BDE5B
:1013800060E0CE01A3DE482F4D7F60E0CE01DF910B
:10139000CF91EBCECF93DF93EC0160E097DE81FD40
:1013A0000FC060E0CE0192DE482F426060E0CE01C7
:1013B000DCDE65E070E080E090E0DF91CF91F5CD7C
:1013C000DF91CF9108950F93CF93DF93EC01222308
:1013D00011F020EB01C020EACE01E7DE002331F05E
:1013E00061E0CE01DF91CF910F9165CEDF91CF917A
:1013F0000F910895CF92DF92EF92FF920F93CF93C8
:10140000DF9300D0CDB7DEB76C017B01C6012A8324
:10141000498371DF2A81498180FF0EC0C6012A837A
:10142000498369DF2A81498184FFF0CF40E167E089
:10143000C6019BDE80E005C001E0B701C601C3DF45
:1014400081E00F900F90DF91CF910F91FF90EF907F
:10145000DF90CF90089567E139DE86958170089519
:101460008F929F92AF92BF92CF92DF92EF92FF92B4
:10147000CF93DF93EC014A015B01222321F04EDF81
:1014800061E0CE0118DE62DD6B017C0167E1CE0117
:101490001DDE84FD1FC0CE012EDF84FFF7CF40E1AB
:1014A00067E0CE0162DE60E0CE0105DE61E0CE01E4
:1014B00002DE4CDD6C197D098E099F0968157905DE
:1014C0008A059B0518F360E0CE01F5DDCE0111DF42
:1014D00080E004C060E0CE01EEDD81E0DF91CF91DD
:1014E000FF90EF90DF90CF90BF90AF909F908F9044
:1014F00008951F93CF93DF93EC01E4DD80E6C1DD17
:101500008FEFBFDD182FCE01DFDD113248F0CE01A5
:10151000EEDE62E070E080E090E047DD80E001C058
:10152000812FDF91CF911F9108950F931F93CF9338
:10153000DF938C01EB0167E1C9DD80FD0AC02097D4
:1015400051F0C801D8DE90E0959587958770888323
:1015500002C080E001C081E0DF91CF911F910F9127
:10156000089560E070E0E1CFCF93DF93EC0163DE9C
:1015700040E767E0CE01DF91CF91F7CDEF92FF9288
:101580000F931F93CF93DF93CDB7DEB728970FB696
:10159000F894DEBF0FBECDBF7C0109831A832B8375
:1015A0003C834D835E836F837887FC012485AE0185
:1015B0004F5F5F4F6AE0A6DDF7012485AE014F5F04
:1015C0005F4F60E1C7019EDDF701458161E1C70121
:1015D000CCDD28960FB6F894DEBF0FBECDBFDF91ED
:1015E000CF911F910F91FF90EF900895BF92CF92EE
:1015F000DF92EF92FF920F931F93CF93DF93CDB7BC
:10160000DEB728970FB6F894DEBF0FBECDBF6C01D2
:10161000B62EE982FA820B831C832D833E834F838F
:10162000588761110AC0FC01448550E0BE016F5F1C
:101630007F4F07960E94911F07C0F6E0F61708F447
:1016400032C081E0681308C0EB2DF0E0E857FF4F8F
:101650006491F601248506C0E62FF0E0E857FF4FBD
:10166000649121E0AE014F5F5F4FC6014BDD0B2D52
:1016700010E0F801EE57FF4F6491F6014581C60175
:1016800074DD62E0C60122DDF801E257FF4F0491EC
:1016900021E030E001C0220F0A95EAF7822B482FA3
:1016A00062E0C60162DD28960FB6F894DEBF0FBE79
:1016B000CDBFDF91CF911F910F91FF90EF90DF9001
:1016C000CF90BF9008951F93CF93DF93EC01162F17
:1016D00062E0FCDCE12FF0E0E257FF4FE49141E0F3
:1016E00050E001C0440FEA95EAF74095482362E0D4
:1016F000CE01DF91CF911F9138CDCF93DF93EC01D5
:1017000049DE60E0CE01E2DC482F416060E0CE01BE
:101710002CDD40E767E0CE0128DD61E0CE01CBDCC7
:101720008F81882341F02C85AE01495F5F4F6AE0CD
:10173000CE01E8DC03C060E0CE01C5DF6DE1CE0183
:10174000C5DC81FF04C0CE01DF91CF91D2CDDF9106
:10175000CF910895CF93DF93EC01B4DC80E591DC69
:1017600083E78FDCCE01DF91CF91AECCCF93DF93B7
:10177000EC016DE1ABDC482F44606DE1CE01F5DC9E
:101780006CE1CE01A3DC482F4F636CE1CE01EDDCB0
:1017900081E08E83DF91CF910895EF92FF921F93A6
:1017A000CF93DF931F92CDB7DEB77C01162F673042
:1017B00000F561E049838ADC4981442349F041E036
:1017C00050E0012E01C0440F0A94EAF7482B08C0EC
:1017D00041E050E001C0440F1A95EAF740954823D4
:1017E00061E0C7010F90DF91CF911F91FF90EF90C3
:1017F000BCCC0F90DF91CF911F91FF90EF90089597
:101800001F93CF93DF93EC01162F66E05FDC887F98
:10181000143020F4612F660F6F5F01C067E0462F20
:10182000482B66E0CE01DF91CF911F919ECCEF92C5
:10183000FF920F931F93CF93DF931F92CDB7DEB725
:101840007C018B0166E042DC582F577D0230110588
:1018500031F450620BE910E020E030E00DC00130BF
:10186000110529F005E510E020E030E005C05860E2
:1018700001E410E020E030E0F701058716872787B4
:10188000308B452F66E0C70159836FDC66E0C701E6
:101890001DDC91E05981851390E0892F0F90DF9135
:1018A000CF911F910F91FF90EF9008951F93CF93C9
:1018B000DF93EC0188819981891719F061E00E941A
:1018C000301B89819881981719F061E00E94301BC4
:1018D00053D060E0CE01EFDB61E0CE01D9DB65E003
:1018E00070E080E090E061DB4CE060E0CE013DDC48
:1018F0004FE564E0CE0139DC62E070E0CE0197DFB5
:10190000882311F081E08C8366E0CE01DFDB182FA5
:1019100060E070E0CE018BDFCE011CDF40E06DE1C6
:10192000CE0123DC40E06CE1CE011FDC40E767E044
:10193000CE011BDC6CE4CE01EBDCCE01D8DCCE01A9
:10194000D8DCCE0127DD60E0CE01C0DB482F4E7F22
:1019500060E0CE010ADC115081E01E3F08F080E01B
:10196000DF91CF911F91089520E1629FB001112472
:101970004F70462B64E0F9CBCF93CFB7F8948091AA
:10198000F804811127C0E6ECF0E08491E2EBF0E08E
:101990009491E82FF0E0EE0FFF1FEC51FF4FA5915F
:1019A000B4918C91892321F461E08AE00E94691B43
:1019B00061E08AE00E94301B8CB580618CBD8CB5E3
:1019C00080648CBD61E08DE00E94301B61E08BE0A3
:1019D0000E94301B8091F8048F5F8093F804CFBF82
:1019E000CF910895FC0170AB67A7E153FF4F9C01B5
:1019F0002B5C3F4F318320833C9628553F4F3183EA
:101A000020832C503109FC0130A727A308958F9221
:101A10009F92AF92BF92CF92DF92EF92FF920F937D
:101A20001F93CF93DF93EC018B018CA828EF820EDC
:101A3000FB0146818CE6840F833020F0483C09F09E
:101A4000C8C003C0443909F4DFC08BE6840F82307C
:101A500018F0483C09F088C07E0159EDE50EF11CF4
:101A6000F70180819181912C9401280F391F213930
:101A7000310520F0C852DF4F1882A9C06E01F8ED81
:101A8000CF0ED11CF6012081222309F4A0C04639D3
:101A900021F0F801378132139AC0FE01EB52FF4F5B
:101AA00040815181F801248135814217530709F0A3
:101AB0008EC05E01FBEDAF0EB11CF50120813181BE
:101AC000A401BE01615F7F4F820F931F0E94911F8F
:101AD000F70180819181880D991D91838083F801A0
:101AE0002681F601263921F08081815080836DC0E6
:101AF0001082F8012781FE01E952FF4F208323382D
:101B000009F480C08E0101531F4FF801A081B181FB
:101B10009E012A1B3B0B2B533F4F28173907E8F038
:101B200032968AE001900D928A95E1F7F801808162
:101B30009181F50160817181F701408151810A969F
:101B40000E94911FF70120813181265F3F4FF801EC
:101B500080819181820F931F36C08FA598A9DEDB0B
:101B60008AA581608AA733C08E0101531F4FF801F7
:101B7000A081B181E82CF12CCE01C5969D01281BD6
:101B8000390BC9018E0D9F1D8B39910504F5E85C59
:101B9000F10988E001900D928A95E1F7F8018081C2
:101BA0009181FC01F186E086BE01615F7F4FA70154
:101BB0000A960E94911FFAE0EF0EF11CF801808155
:101BC00091818E0D9F1D9183808381E072C080E0A2
:101BD00070C0433849F6DE01AF52BF4FFE01379661
:101BE00088E001900D928A95E1F7FE01E552FF4FE2
:101BF000CE010F9691838083C752DF4FE82CF12CE2
:101C0000F982E88282E055C0F80127812B3908F07B
:101C100031CFFE01EB52FF4F40815181F8018481A9
:101C20009581BE016F527F4F6B014817590749F4E8
:101C3000FB0140815181F80180819181481759074A
:101C400021F2F8E12F9F90011124FE01E153FF4F93
:101C500080819181AE01481B590BCA018B539F4F64
:101C60008217930734F48AA581608AA78FA598A963
:101C700055DBFE01379688E0D60101900D928A95DA
:101C8000E1F7E82CF12CFE01E552FF4FBE01615F48
:101C90007F4FA701808191810E94911FFE01E75231
:101CA000FF4FF182E082C852DF4F888181508883E4
:101CB0008CCFDF91CF911F910F91FF90EF90DF902C
:101CC000CF90BF90AF909F908F900895FC01E1530B
:101CD000FF4F9C012B5C3F4F81E0408151812417D5
:101CE000350708F080E00895FC01F596DC01A1536A
:101CF000BF4F2D913C91E217F30750F428E0DB0130
:101D000001900D922A95E1F7FC0185AD96AD0895FD
:101D100080E090E00895CF92DF92EF92FF920F93D0
:101D20001F93CF93DF938C01CA01680145E3C40E72
:101D3000D11C7801EFECEE0EF11CF70140815181CE
:101D4000C416D50678F548E0F601DB0101900D9246
:101D50004A95E1F7F801C5ADD6AD2115310551F031
:101D6000A901C217D30708F4AE01B801615C7F4F27
:101D70000E94911F4AE950E04C1B5D0BBE01615C63
:101D80007F4F600F711FC6010E949A1F26EF3FEF21
:101D90002C1B3D0BF70180819181820F931F918352
:101DA000808302C0C0E0D0E0CE01DF91CF911F91CF
:101DB0000F91FF90EF90DF90CF900895FC01E059D4
:101DC000FE4F20813181AB0142235323FC0182A9C4
:101DD00093A94817590761F42095309583E0220FA5
:101DE000331F8A95E1F72623372381E0232B09F05F
:101DF00080E00895BF92CF92DF92EF92FF920F930F
:101E00001F93CF93DF937C018B01FC01E359FE4FBD
:101E1000D080C1803296B080FB0182812081918187
:101E2000C22FD92F823020F081E0838390E024C03C
:101E3000BE01C701C3DF81111EC0F701E059FE4F8B
:101E400020813181BE0162237323F70142A953A986
:101E50006417750739F08B2D65E00E94091ECD2DA2
:101E6000DC2D0AC0C90123E0880F991F2A95E1F7EC
:101E70008760C823D92395E0F801D183C08392837A
:101E800081E0DF91CF911F910F91FF90EF90DF9054
:101E9000CF90BF900895DC01D2962D913C91D397BD
:101EA000E0E04FEF5FEFBA0162237323672B39F055
:101EB000B3E0440F551FBA95E1F7EF5FF4CFDC01B3
:101EC000D196EC9340955095FC01E059FE4F51831B
:101ED0004083A3E056954795AA95E1F73397BA0159
:101EE00062237323718360834115510559F063E0C8
:101EF000369527956A95E1F773E0569547957A955B
:101F0000E1F7F2CFFC01E159FE4F208308956115FE
:101F1000710551F0862F8770863040F4F3E0769596
:101F20006795FA95E1F7F3CF81E0089580E0089591
:101F3000882379F090E001979C01220F331F280F2E
:101F4000391F81E090E002C0880F991F2A95E2F7BF
:101F5000089580E090E00895CF93DF93CDB7DEB78A
:101F600028970FB6F894DEBF0FBECDBF2CEC2983A7
:101F70002A832B832C832D831E821F8218869C012B
:101F800041E021153105C1F0611102C0009769F4EB
:101F9000D901A770BB27A950BE4F5C91A1E0B0E06A
:101FA000AC0FBD1FA40FB11D5C93B3E03695279510
:101FB000BA95E1F74F5FE5CF611102C0892B39F483
:101FC000E62FF0E0E950FE4F8081898306C0E42FC0
:101FD000F0E0EA50FE4F80818A8329813A814B816B
:101FE0005C816D817E818F81988528960FB6F894EB
:101FF000DEBF0FBECDBFDF91CF910895BF92CF92CC
:10200000DF92EF92FF920F931F93CF93DF93EC0138
:10201000162F6A01BA017BDF882309F452C0DBAABC
:10202000CAAA8FA598A9FC0120812F3F09F449C0B5
:1020300021812F3F09F445C01F3F11F0612F68D95E
:1020400040E060E08FA598A9A8DB8FA598A98EDB5A
:102050008AA99BA966E070E00E94151E682F660F92
:102060006B5F45E08FA598A97FDC09E110E020E0D7
:1020700030E009831A832B833C838BE490E09E83BA
:102080008D83CE0108DF16E0B12EBA94FFEFBF16A4
:1020900061F06B2DC60160DF79018A019B01AC0103
:1020A0006B2D8FA598A9A2DAF0CF8FA598A9DF9103
:1020B000CF911F910F91FF90EF90DF90CF90BF9045
:1020C0001CCBDF91CF911F910F91FF90EF90DF908C
:1020D000CF90BF9008959F92AF92BF92CF92DF9220
:1020E000EF92FF920F931F93CF93DF93EC01CB01FD
:1020F000F22E642F31DF8901942EA52EB62EC72E25
:10210000D82EE92E8AA582FD03C08FA598A906D9ED
:102110008FA598A9FF2011F040E001C041E060E0E8
:102120003CDB292D3A2D4B2D5C2D6D2D7E2D8FA561
:1021300098A924DA2F2D4CA9BE01695F7F4F8FA586
:1021400098A958D9F82E8AA582FD0EC049815A81D6
:102150006B817C8120E08FA598A982D9F82E40E080
:1021600060E08FA598A919DB8F2DDF91CF911F918A
:102170000F91FF90EF90DF90CF90BF90AF909F9026
:1021800008958F929F92AF92BF92CF92DF92EF927B
:10219000FF920F931F93CF93DF9300D000D0CDB762
:1021A000DEB78C017B01D42EFC01C584B0DE882310
:1021B00009F48DC08FEB8C0DCC24C3948F3708F0BD
:1021C000C12C19821A821B821C82FA82E982DB826C
:1021D000BE016F5F7F4FC8010DDE69817A812C815E
:1021E0004B81C80178DFF1E0DF1225C0811102C008
:1021F000F12C65C089819A818E159F05F1F4CC2060
:10220000E1F081ECF801858787819085928781874D
:102210009A838983DB821C82BE016F5F7F4FC80176
:10222000E9DD88E0F80184AB69817A812C814B81FA
:10223000C80151DF02C08823D9F289819A818E15A5
:102240009F0519F4FF24F3943AC0DD2019F0F3E060
:10225000DF12F8CFCC20B1F3F80182A582FF11C0C4
:10226000418152816381748120E087A590A9F8D8CB
:10227000F80182A58B7F82A740E060E087A590A946
:102280008CDAF80187A590A938DA0E94A6076B01BD
:102290007C01C8012DD0813CA9F20E94A6076C19CF
:1022A0007D098E099F09F801258136814901A12CFC
:1022B000B12C86169706A806B90658F799CFF801EB
:1022C00082A582FD03C087A590A917DA8F2D0F90F4
:1022D0000F900F900F90DF91CF911F910F91FF9072
:1022E000EF90DF90CF90BF90AF909F908F90089528
:1022F0008F929F92AF92BF92CF92DF92EF92FF9216
:102300000F931F93CF93DF931F92CDB7DEB78C014E
:10231000FC0142A541FF0EC07801F7E0EF0EF11C71
:10232000680181E9C81A8EEFD80A94E2A92E99E0D3
:10233000B92E33C0FC01E153FF4F9C012B5C3F4F92
:1023400040FD07C080819181821B930B89379105E5
:102350001CF3808191812817390708F4B6C04E7F9D
:10236000F80142A7D9CFFC0121812F3F09F4ADC06C
:10237000BE016F5F7F4FD9D8882309F4A6C0F8014A
:1023800087A590A9B6D8F80184AB883070F46AE0CC
:1023900070E080E090E00E94D507F80187A590A941
:1023A000FC0120812F3FF9F690C0482FB701F801BA
:1023B00087A590A9D9D8F80181849284B401C80175
:1023C000A6DD882351F3F801858522A933A9821659
:1023D000930609F03EC0823801F3803891F4F4E2AC
:1023E0008F16F9E09F06D9F0F801B286A18642E087
:1023F00064E279E0C801C5DE6AE070E080E090E068
:1024000041C0833C61F48114910449F0F801908645
:1024100087821286118640E060E070E053C0F801C8
:1024200091A5992319F087FF0CC002C0813C49F4A3
:102430009CE6980F933028F0883C19F0833809F017
:1024400045C0B701C801E3DA823009F0A6CF83E8BE
:102450003DC0F0E48F16910499F5823CD1F424320A
:1024600089E03807B1F0F80182A583FD96CF878116
:1024700090859287818730872783F601608170E09D
:1024800080E090E00E94D507F8016185728542E006
:1024900019C0B701C801BBDA982EF80180818823E2
:1024A00059F081A945DDBC0183E0660F771F8A954D
:1024B000E1F744E0C80165DEF2E09F126ECFC7CFBE
:1024C00041E0B401C8015DDE68CF80E00F90DF918C
:1024D000CF911F910F91FF90EF90DF90CF90BF9021
:1024E000AF909F908F900895EF92FF920F931F935C
:1024F000CF93DF93EC017B01BA018AA99BA9F70175
:1025000091838083DE01179688E001900D928A9571
:10251000E1F72115310529F0A901CE010F960E949E
:10252000911FF701628173810833110561F06034F6
:10253000710511F043E001C044E06017710709F430
:1025400042E0B80101C040E0CE01DF91CF911F9180
:102550000F91FF90EF9015CE2F923F924F925F9286
:102560006F927F928F929F92AF92BF92CF92DF92A3
:10257000EF92FF920F931F93CF93DF93EC017B01B8
:102580005A01690148010E94A6074BA45CA46DA4EE
:102590007EA4641975098609970969317105810559
:1025A000910520F4CE01A4DE87FFEDCF88EC90E00A
:1025B0000E94FA0789E1C816D10460F488E08C0D06
:1025C0008CAB84019601A501B701CE018DDF81118D
:1025D00089C081C0E1E9CE16D10408F085C0C601EA
:1025E00068E170E00E94151E21E0892B09F420E0CB
:1025F000C60168E170E00E94151E722E760EF7018A
:10260000828193818034910539F08AA584608AA7FC
:102610008FA598A90E948E09F7014680612C512C44
:1026200024E9222E36E9332EF7017782F1E07F127A
:1026300004C0F7013682478208C0511003C0F70179
:10264000268203C085E9F7018683E8E15E9EA0014A
:1026500011249601241B350B2931310510F028E196
:1026600030E088E0820F8CAB4A0D5B1D8401B7011E
:10267000CE013ADF182F81110BC062E070E080E0DC
:1026800090E00E94D5076394F2E0F61520F405C0AF
:102690007A945394612C7110C7CFF70146828AA5B2
:1026A00082FF12C049815A816B817C8120E08FA515
:1026B00098A90E94300A182F8FA598A91ED840E02B
:1026C00060E08FA598A969D88AA58B7F8AA7112376
:1026D00059F0772039F00E94A6076BA77CA78DA739
:1026E0009EA702C081E001C080E0DF91CF911F91E1
:1026F0000F91FF90EF90DF90CF90BF90AF909F90A1
:102700008F907F906F905F904F903F902F900895A3
:10271000CF92DF92EF92FF920F931F93CF93DF93AD
:1027200000D000D0CDB7DEB77C016B01802F60E414
:1027300070E0F60173836283F70162A973A9F60161
:10274000718360832B833C8349835A83F1DB8C0143
:102750002B813C8149815A81B601C701FDDE0F9072
:102760000F900F900F90DF91CF911F910F91FF90DD
:10277000EF90DF90CF9008950F931F9308E310E040
:10278000EBDE1F910F910895FC01738362838091AA
:102790000A0190910B019C012F5F3F4F30930B0179
:1027A00020930A019583848346830895FC017783EF
:1027B0006683518740870895CF92DF92EF92FF9210
:1027C0000F931F93CF93DF93CDB7DEB728970FB644
:1027D000F894DEBF0FBECDBF7C016A01FC01808191
:1027E00091818432994071F0422FCE010196CCDF65
:1027F0009801A601BE016F5F7F4FF701808591852B
:10280000BBDF01C080E028960FB6F894DEBF0FBE94
:10281000CDBFDF91CF911F910F91FF90EF90DF908F
:10282000CF900895CF92DF92EF92FF920F931F9374
:10283000CF93DF93CDB7DEB729970FB6F894DEBFFD
:102840000FBECDBF8C016987DC0112968C91129767
:10285000811118C015963C91462F80E090E020E051
:102860002317B1F0D8011396ED91FC911497E80F5E
:10287000F91F03965081541303C08181928155C082
:102880002F5FEECFF801808191818432994011F45D
:102890008FEF45C08985882309F443C01C821B82C1
:1028A00080910A0190910B019C012F5F3F4F309363
:1028B0000B0120930A019E838D8384EC8F8322E099
:1028C00030E0AE01475F5F4FBE016F5F7F4FD801C1
:1028D00018968D919C9119974FDF8823C9F20E9419
:1028E000A6076B017C01F8018085918501DD843CA0
:1028F00061F00E94A6076C197D098E099F0967394E
:1029000071058105910578F3C3CFD8011896ED9133
:10291000FC9119972785308937FF06C08EEF9FEF0E
:1029200004C080E090E001C0C90129960FB6F89478
:10293000DEBF0FBECDBFDF91CF911F910F91FF90F2
:10294000EF90DF90CF9008953F924F925F926F92F9
:102950007F928F929F92AF92BF92CF92DF92EF922F
:10296000FF920F931F93CF93DF9300D000D0CDB78A
:10297000DEB77C016B01342E3A832983FC01808110
:1029800091818432994011F480E038C00E94A607FA
:10299000011103C01C821B8229C022E3422E512C4C
:1029A000612C712C4B015C01F8EB8F0EFBE09F1E3C
:1029B000A11CB11C602FC70135DF9C838B8397FF5F
:1029C00015C00E94A60786169706A806B906E0F26B
:1029D0008B819C810296C1F222E3420E511C611C44
:1029E000711CC301B2010E94D507E4CF09811A818D
:1029F000232DA6016B817C81C701DEDE0F900F9035
:102A00000F900F90DF91CF911F910F91FF90EF905A
:102A1000DF90CF90BF90AF909F908F907F906F90FE
:102A20005F904F903F900895CF92DF92EF92FF9288
:102A30000F931F93CF93DF93CDB7DEB72A970FB6CF
:102A4000F894DEBF0FBECDBF8C017A876987862FD1
:102A5000972F8F3F2FEF920721F4D80112968C9178
:102A600021C0009709F45AC0F80120813181211555
:102A70003105D1F4758120E030E060E001C06F5F86
:102A8000671709F448C0D8011396ED91FC9114978B
:102A9000E20FF31F2D5F3F4F4181528148175907C5
:102AA00071F7808190E03CC024323940A1F146ECBE
:102AB00060E070E0CE01019667DE22E030E0AE011A
:102AC000475F5F4FBE016F5F7F4FF8018085918543
:102AD00053DE882301F10E94A6076B017C01D80117
:102AE00018968D919C91199703DC863C61F00E94A9
:102AF000A6076C197D098E099F09653F7140810504
:102B0000910568F308C0D8011896ED91FC911997CA
:102B10008785908905C08FEF9FEF02C080E090E02D
:102B20002A960FB6F894DEBF0FBECDBFDF91CF91CE
:102B30001F910F91FF90EF90DF90CF900895DF925B
:102B4000EF92FF920F931F93CF93DF9300D0CDB7F7
:102B5000DEB78C01DC0118968D919C911997C8DB2A
:102B6000D82EF801808191818432994009F46AC09D
:102B700023ECD21205C081E0D8011A968C9362C072
:102B80008D2D8D7F843CA1F5F8018281811130C0AB
:102B90000084F185E02D7F01B7E0EB0EF11C278169
:102BA00030853287218724ECD21211C06785C80195
:102BB00039DE9A83898322E030E0AE014F5F5F4FB8
:102BC000B701D80118968D919C9119970FC0678510
:102BD00070E0C80129DF9A83898322E030E0AE01EA
:102BE0004F5F5F4FB701F80180859185C5DD2AC031
:102BF00085ECD81227C0D80112968C91811122C081
:102C0000D80118966D917C91199740E0F801858163
:102C10004817C0F4D8011396ED91FC911497B3E0D6
:102C20004B9FE00DF11D112481819281DB011796EC
:102C30002D913C9118978217930711F412821182FB
:102C40004F5FE4CF8D2D0F900F90DF91CF911F91AB
:102C50000F91FF90EF90DF900895FF920F931F93D5
:102C6000CF93DF93CDB7DEB728970FB6F894DEBFCA
:102C70000FBECDBF8C0134E0F32EFA9431F0F80191
:102C8000808191818432994049F4D80116968D91C2
:102C90009C9117970E948E0980E02FC0C8014FDFDA
:102CA000D80116968D919C9117970E942B0A81113D
:102CB00008C0D8011896ED91FC91199782A580FF64
:102CC00002C081E01AC042E860E070E0CE010196E7
:102CD0005BDD20E030E040E050E0BE016F5F7F4F01
:102CE000F8018085918548DD8111EBCF67E670E0C2
:102CF00080E090E00E94D507C0CF28960FB6F894E8
:102D0000DEBF0FBECDBFDF91CF911F910F91FF901E
:102D100008956F927F928F929F92AF92BF92CF92BF
:102D2000DF92EF92FF920F931F93CF93DF93CDB774
:102D3000DEB760970FB6F894DEBF0FBECDBF7C0143
:102D4000062F42EC60E470E0CE0109961DDD20E024
:102D500030E040E050E0BE01675F7F4FD70118963A
:102D60008D919C911997D4DC0E94A6074B015C01C0
:102D7000D12C18E0F70180859185BADA823C89F47C
:102D8000DE011196AD0DB11DAD0DB11DF7018085B0
:102D900091850796FC01812F01900D928A95E1F7AC
:102DA000D3940E94A607681979098A099B09683398
:102DB00071058105910520F4F3E0FD15D8F604C0F6
:102DC000D11002C000E094C0C12C712C43EC642EE1
:102DD000CD14E0F56F86D70112968C911297888BEF
:102DE000FE013196EC0DF11DEC0DF11D00811181FC
:102DF0001C870B8720E030E040E050E0BE01675FB9
:102E00007F4F18968D919C911997A6DB0E94A6077B
:102E10004B015C010E94A607681979098A099B0980
:102E2000613E71058105910548F4F7018085918522
:102E30005FDA782EF0E88F13EDCFCD2C65E070E0EF
:102E400080E090E00E94D507C394C2CF80E878125A
:102E5000B9CFD7011896ED91FC9119978785908984
:102E6000009709F4AFCF368512962C913213AACF72
:102E7000D70111969C938E9316968D919C911797DE
:102E80000E948E096AE070E080E090E00E94D50721
:102E9000F701408151816FEF80859185AFD81C8605
:102EA0001B8681E88F8717E020E030E040E050E0AB
:102EB000BE01675F7F4FF701808591855DDC082F3C
:102EC000811116C0115069F444E259E06FEFF70127
:102ED0008085918593D824E239E0D7012D933C93E6
:102EE00007C063E070E080E090E00E94D507DCCF8F
:102EF000802F60960FB6F894DEBF0FBECDBFDF9176
:102F0000CF911F910F91FF90EF90DF90CF90BF90E6
:102F1000AF909F908F907F906F9008957F928F9247
:102F20009F92AF92BF92CF92DF92EF92FF920F9358
:102F30001F93CF93DF93EC014A015B018E819F8148
:102F40000E94B10A882319F080E090E05AC08E8177
:102F50009F810E948E09E885F98582A5826082A7FB
:102F60006AE070E080E090E00E94D50744E259E01A
:102F70006FEF8885998542D884E299E099838883A8
:102F80000E94A6076B017C0110E0712C0AE0672DFE
:102F9000CE01BFDE81112EC00E94A6076C197D09EB
:102FA0008E099F0986169706A806B90668F2E12FD2
:102FB000F0E03196472D50E04F5F5F4FE49F900166
:102FC000E59F300DF49F300D1124275E3F4F220FF7
:102FD000331FB901882777FD8095982F0E94D50768
:102FE0007394872D8370782E81E0810F602F11D626
:102FF000192FCDCFE885F98582A58D7F82A788819D
:103000009981DF91CF911F910F91FF90EF90DF9009
:10301000CF90BF90AF909F908F907F9008958F92A8
:103020009F92AF92BF92CF92DF92EF92FF920F9357
:103030001F93CF93DF931F92CDB7DEB74C015A0198
:1030400068017901FC018681978169830E94560C91
:10305000F40182816981882329F084E299E09183D7
:1030600080830AC086E090E0698334D6F4019483BB
:103070008383118210826981F401638B8681978139
:103080000E948809B501F401868197810E94170C7E
:10309000F4018085918521E0FC0121A7F4012281C2
:1030A000222349F0B701A601C40138DF21E0892BB2
:1030B00049F420E007C0F401408151816FEF0E9484
:1030C000FE0F21E0822F0F90DF91CF911F910F9182
:1030D000FF90EF90DF90CF90BF90AF909F908F9038
:1030E0000895FC0162830895DC0115966C93159791
:1030F00016964C93169770E0FB01E855FF4FE4914C
:103100001796EC931797FB01E454FF4F64911896C0
:103110006C93189740E85EE360E070E01D964D9375
:103120005D936D937C9350970895CF93DF93EC015B
:1031300062E08D8195D240E358EF6FEF7FEF4987D2
:103140005A876B877C87DF91CF910895AF92BF92AA
:10315000CF92DF92EF92FF920F931F93CF93DF9363
:10316000EC01AF80662311F0BA2C01C0B12CA88508
:10317000B0E0AA0FBB1FA053BF4F40E050E0BA0120
:10318000FD0185919491FC0180818A218B1112C0EF
:103190008A019B010F5F1F4F2F4F3F4FCD84DE846D
:1031A000EF84F8884C155D056E057F0538F4B9018C
:1031B000A801E6CF342F252FCB0104C030E020E05A
:1031C00080E090E0632F722FDF91CF911F910F91DC
:1031D000FF90EF90DF90CF90BF90AF900895CF9287
:1031E000DF92EF92FF920F931F93CF93DF93CDB7B0
:1031F000DEB7C054D1400FB6F894DEBF0FBECDBFCE
:103200008C01F62E0E94A607F11016C0F801C184A9
:10321000D284E384F4849B01AC012C193D094E094E
:103220005F0969017A0130EDC31637E0D306E10486
:10323000F10410F48189B1C0F80161877287838736
:1032400094871482138212821182108261E0858138
:1032500040D26AEF70E080E090E00E94D50761E024
:10326000F8018581FDD160E0F801858132D264E109
:1032700070E080E090E00E94D507F89461E0F801EA
:10328000858127D288E290E00E94FA0762E0F80187
:103290008581E6D18AE090E00E94FA0760E0C801EB
:1032A00055DF672B682B692B39F061E0C8014EDFD1
:1032B000672B682B692B21F4F801118A78946CC074
:1032C0006E01FFEBCF1AFEEFDF0A9E012F5F3F4F2B
:1032D000790160E0C8013ADFF7016083718382837E
:1032E000938361E0C80132DFF701648375838683CD
:1032F0009783F8E0EF0EF11CEC14FD0451F778947D
:103300009E012F5F3F4F790120E030E0F7014081BF
:1033100051816281738184819581A681B781411534
:10332000510561057105B1F10097A105B10591F154
:10333000F901F595E795F595E795F595E795E00F92
:10334000F11FD080DD0C481759076A077B0710F082
:10335000D08203C08D2D816080832F5F3F4FF8E0C6
:10336000EF0EF11C2832310589F6F801248130E096
:103370004081818190E0840F911D4281840F911DD5
:103380004381840F911D99272817390719F481E08B
:10339000818B03C0F801118A80E0C05CDE4F0FB65C
:1033A000F894DEBF0FBECDBFDF91CF911F910F917B
:1033B000FF90EF90DF90CF900895CF92DF92EF9241
:1033C000FF920F931F93CF93DF93EC01162F642F7F
:1033D00006DF882309F43BC08E818B3031F008F47E
:1033E00036C08551823038F032C06A8170E080E0AA
:1033F00090E0F2D21FC00A81602F6F7770E080E00A
:1034000090E0ECD220E030E040E853E49BD36B0145
:103410007C016B8170E080E090E0E0D29B01AC0128
:10342000C701B601D8D12DEC3CEC4CEC5DE38AD35E
:1034300007FD9058112379F026E636E646EE5FE365
:1034400081D320E030E040E052E4C5D104C060E028
:1034500070E080EC9FE7DF91CF911F910F91FF907B
:10346000EF90DF90CF900895CF92DF92EF92FF928E
:10347000CF93DF93EC0160E0B2DE882349F18E81C7
:103480008B3001F128F18551823010F5688170E0B0
:1034900080E090E0A1D220E030E040E853E452D355
:1034A0006B017C01698170E080E090E097D29B0124
:1034B000AC01C701B6018FD12DEC3CEC4CEC5DE3C7
:1034C00041D30AC0688170E080E090E085D204C0FA
:1034D00060E070E080EC9FE7DF91CF91FF90EF908C
:1034E000DF90CF9008950F931F93CF93DF93EC015C
:1034F0008C0106551F4FCE0121D16196C017D1070F
:10350000D1F7DF91CF911F910F910895CF92DF9264
:10351000EF92FF921F93CF93DF936A017B01EC013F
:103520001AE08881882321F0B701A601CE0109D1D4
:10353000115061961111F5CFDF91CF911F91FF903E
:10354000EF90DF90CF900895CF93DF93EC010E942E
:10355000A607AB01BC01CE01DF91CF91D7CF20E010
:10356000FC013081332331F02F5F41962A30C1F7BF
:103570008FEF0895822F0895CF92DF92EF92FF92FE
:103580000F931F93CF93DF9300D000D0CDB7DEB75A
:103590006C01790149835A836B837C83E0DF282F98
:1035A00049815A816B817C818F3FD9F081E128026A
:1035B000C00CD11C112481E0F60180834183528329
:1035C0006383748316830583F286E18629830E94D0
:1035D000A607F6016387748785879687108A178602
:1035E0002981822F0F900F900F900F90DF91CF9134
:1035F0001F910F91FF90EF90DF90CF9008950F9360
:103600001F930FEF1FEFB8DF1F910F9108958330C5
:1036100081F028F4813099F08230A1F0089587304C
:10362000A9F08830B9F08430D1F4809180008F7D8A
:1036300003C0809180008F7780938000089584B5C7
:103640008F7702C084B58F7D84BD08958091B000CE
:103650008F7703C08091B0008F7D8093B000089574
:10366000CF93DF9390E0FC01E855FF4F2491FC01DC
:10367000E454FF4F8491882349F190E0880F991F0B
:10368000FC01EC51FF4FA591B49186529F4FFC0174
:10369000C591D4919FB7611108C0F8948C91209581
:1036A00082238C93888182230AC0623051F4F8947B
:1036B0008C91322F309583238C938881822B888341
:1036C00004C0F8948C91822B8C939FBFDF91CF9193
:1036D00008950F931F93CF93DF931F92CDB7DEB75B
:1036E000282F30E0F901EC56FF4F8491F901E8559D
:1036F000FF4F1491F901E454FF4F04910023C1F0EE
:10370000882319F0698383DF6981E02FF0E0EE0FF1
:10371000FF1FE652FF4FA591B4919FB7F8948C918B
:10372000611103C01095812301C0812B8C939FBF31
:103730000F90DF91CF911F910F910895FC0110829E
:103740000895CF92DF92EF92FF92CF93DF93EC0137
:103750006A017B018B859C85AD85BE859A01AB0195
:10376000281B390B4A0B5B0BDA01C90149815A81CD
:103770006B817C8184179507A607B707D0F08881F5
:10378000813019F0823029F00BC0E985FA8509955E
:1037900007C061E08885811160E068878F8199DFCB
:1037A000CB86DC86ED86FE868F8598890196988B80
:1037B0008F878D819E8197FD06C02F8538892817B8
:1037C00039070CF01882DF91CF91FF90EF90DF90D6
:1037D000CF9008955058BB27AA270ED075C166D147
:1037E00030F06BD120F031F49F3F11F41EF45BC137
:1037F0000EF4E095E7FB51C1E92F77D180F3BA17BA
:10380000620773078407950718F071F49EF58FC15E
:103810000EF4E0950B2EBA2FA02D0B01B9019001EB
:103820000C01CA01A0011124FF27591B99F0593F2F
:1038300050F4503E68F11A16F040A22F232F342F77
:103840004427585FF3CF469537952795A795F040C5
:103850005395C9F77EF41F16BA0B620B730B840BDA
:10386000BAF09150A1F0FF0FBB1F661F771F881F92
:10387000C2F70EC0BA0F621F731F841F48F48795EA
:1038800077956795B795F7959E3F08F0B3CF9395D9
:10389000880F08F09927EE0F979587950895D9D04E
:1038A00008F481E008950CD00FC107D140F0FED09C
:1038B00030F021F45F3F19F0F0C0511139C1F3C06D
:1038C00014D198F39923C9F35523B1F3951B550BE4
:1038D000BB27AA2762177307840738F09F5F5F4FE3
:1038E000220F331F441FAA1FA9F333D00E2E3AF024
:1038F000E0E830D091505040E695001CCAF729D03E
:10390000FE2F27D0660F771F881FBB1F261737078C
:103910004807AB07B0E809F0BB0B802DBF01FF27BC
:1039200093585F4F2AF09E3F510568F0B6C000C122
:103930005F3FECF3983EDCF3869577956795B795F6
:10394000F7959F5FC9F7880F911D9695879597F911
:103950000895E1E0660F771F881FBB1F621773078A
:103960008407BA0720F0621B730B840BBA0BEE1F9F
:1039700088F7E095089504D06894B111D9C00895EE
:10398000BCD088F09F5790F0B92F9927B751A0F07D
:10399000D1F0660F771F881F991F1AF0BA95C9F7E3
:1039A00012C0B13081F0C3D0B1E00895C0C0672F1C
:1039B000782F8827B85F39F0B93FCCF38695779593
:1039C0006795B395D9F73EF490958095709561957C
:1039D0007F4F8F4F9F4F0895E89409C097FB3EF4A7
:1039E00090958095709561957F4F8F4F9F4F99234C
:1039F000A9F0F92F96E9BB279395F69587957795CA
:103A00006795B795F111F8CFFAF4BB0F11F460FF89
:103A10001BC06F5F7F4F8F4F9F4F16C0882311F0E1
:103A200096E911C0772321F09EE8872F762F05C0F5
:103A3000662371F096E8862F70E060E02AF09A9590
:103A4000660F771F881FDAF7880F9695879597F985
:103A50000895990F0008550FAA0BE0E8FEEF16161F
:103A60001706E807F907C0F012161306E407F50772
:103A700098F0621B730B840B950B39F40A2661F0E6
:103A8000232B242B252B21F408950A2609F4A14089
:103A9000A6958FEF811D811D089597F99F6780E896
:103AA00070E060E008959FEF80EC089500240A9490
:103AB0001616170618060906089500240A94121609
:103AC0001306140605060895092E0394000C11F43C
:103AD000882352F0BB0F40F4BF2B11F460FF04C0E9
:103AE0006F5F7F4F8F4F9F4F089557FD9058440F42
:103AF000551F59F05F3F71F04795880F97FB991F4D
:103B000061F09F3F79F08795089512161306140609
:103B1000551FF2CF4695F1DF08C016161706180696
:103B2000991FF1CF86957105610508940895E89471
:103B3000BB2766277727CB0197F908958ADF08F41A
:103B40008FEF08950BD0C0CFB1DF28F0B6DF18F0AB
:103B5000952309F0A2CFA7CF1124EACFC6DFA0F3A7
:103B6000959FD1F3950F50E0551F629FF001729F12
:103B7000BB27F00DB11D639FAA27F00DB11DAA1F31
:103B8000649F6627B00DA11D661F829F2227B00D7E
:103B9000A11D621F739FB00DA11D621F839FA00D09
:103BA000611D221F749F3327A00D611D231F849F59
:103BB000600D211D822F762F6A2F11249F575040B0
:103BC0008AF0E1F088234AF0EE0FFF1FBB1F661F4B
:103BD000771F881F91505040A9F79E3F510570F004
:103BE0005CCFA6CF5F3FECF3983EDCF386957795EC
:103BF0006795B795F795E7959F5FC1F7FE2B880FFF
:103C0000911D9695879597F9089523DF880B990B59
:103C10000895991B79E004C0991F961708F0961B28
:103C2000881F7A95C9F780950895AA1BBB1B51E19F
:103C300007C0AA1FBB1FA617B70710F0A61BB70B1C
:103C4000881F991F5A95A9F780959095BC01CD01C1
:103C50000895A1E21A2EAA1BBB1BFD010DC0AA1FCD
:103C6000BB1FEE1FFF1FA217B307E407F50720F0E5
:103C7000A21BB30BE40BF50B661F771F881F991F60
:103C80001A9469F760957095809590959B01AC01A9
:103C9000BD01CF0108950FD0A59F900DB49F900D49
:103CA000A49F800D911D11240895EE0FFF1F059014
:103CB000F491E02D0994A29FB001B39FC001A39F8E
:103CC000700D811D1124911DB29F700D811D112455
:103CD000911D0895CF93DF938230910510F482E017
:103CE00090E0E091FB04F091FC0420E030E0A0E0E3
:103CF000B0E0309739F14081518148175907B8F049
:103D00004817590771F482819381109729F013960F
:103D10009C938E9312972CC09093FC048093FB0489
:103D200027C02115310531F04217530718F0A901BA
:103D3000DB0101C0EF019A01BD01DF010280F381C7
:103D4000E02DD7CF21153105F9F0281B390B243090
:103D5000310580F48A819B816115710521F0FB0199
:103D60009383828304C09093FC048093FB04FE0140
:103D7000329644C0FE01E20FF31F819391932250CB
:103D80003109398328833AC02091F9043091FA042B
:103D9000232B41F420910201309103013093FA0466
:103DA0002093F90420910001309101012115310582
:103DB00041F42DB73EB74091040150910501241BF9
:103DC000350BE091F904F091FA04E217F307A0F43F
:103DD0002E1B3F0B2817390778F0AC014E5F5F4F61
:103DE0002417350748F04E0F5F1F5093FA04409395
:103DF000F9048193919302C0E0E0F0E0CF01DF91FC
:103E0000CF910895CF93DF93009709F487C0FC0109
:103E1000329713821282C091FB04D091FC04209748
:103E200081F420813181280F391F8091F90490910C
:103E3000FA048217930779F5F093FA04E093F904F2
:103E40006DC0DE0120E030E0AE17BF0750F41296DF
:103E50004D915C9113979D014115510509F1DA01CE
:103E6000F3CFB383A28340815181840F951F8A17BA
:103E70009B0771F48D919C911197840F951F029669
:103E80009183808312968D919C9113979383828363
:103E90002115310529F4F093FC04E093FB043EC0A6
:103EA000D9011396FC93EE9312974D915D91A40F57
:103EB000B51FEA17FB0779F480819181840F951F64
:103EC0000296D90111969C938E93828193811396C9
:103ED0009C938E931297E0E0F0E08A819B8100979B
:103EE00019F0FE01EC01F9CFCE010296288139814B
:103EF000820F931F2091F9043091FA042817390793
:103F000069F4309729F41092FC041092FB0402C06B
:103F100013821282D093FA04C093F904DF91CF91F7
:103F20000895FB01DC0102C001900D924150504008
:103F3000D8F708956817790768F4FB01DC01E40FEE
:103F4000F51FA40FB51F02C002900E9241505040C1
:0A3F5000D8F70895E6CFF894FFCFEC
:103F5A000000FD0480008813000001004D657373A2
:103F6A006167652072656365697665642C206E6F8A
:103F7A0020696E737472756374696F6E73004E6F25
:103F8A0020696E737472756374696F6E73207265DB
:103F9A006365697665640053656E64696E6720744B
:103FAA00656D703A200052656E6577696E672041CB
:103FBA006464726573730053656E64206661696C2C
:103FCA002C2054657374204F4B0053656E64696EE0
:103FDA00672068756D69646974793A200052657161
:103FEA0075657374696E6720696E7374727563742C
:103FFA00696F6E73004E6F6465494420756E736510
:10400A00742E204E6577204E6F646549443F0053F5
:10401A006574204E6F646549443A2000436F6E6EA2
:10402A0065637465640000000000D5024904590202
:10403A0072026402B4020D0A006E616E00696E6655
:0E404A00006F7666002E00C33C33CE3EE3ECE2
:00000001FF
